{
  "contractName": "ONSAccessControl",
  "abi": [
    {
      "constant": true,
      "inputs": [],
      "name": "validatorAddress",
      "outputs": [
        {
          "name": "",
          "type": "address"
        }
      ],
      "payable": false,
      "stateMutability": "view",
      "type": "function"
    },
    {
      "constant": true,
      "inputs": [],
      "name": "managerAddress",
      "outputs": [
        {
          "name": "",
          "type": "address"
        }
      ],
      "payable": false,
      "stateMutability": "view",
      "type": "function"
    },
    {
      "inputs": [],
      "payable": false,
      "stateMutability": "nonpayable",
      "type": "constructor"
    },
    {
      "constant": false,
      "inputs": [
        {
          "name": "_newManager",
          "type": "address"
        }
      ],
      "name": "setManager",
      "outputs": [],
      "payable": false,
      "stateMutability": "nonpayable",
      "type": "function"
    },
    {
      "constant": false,
      "inputs": [
        {
          "name": "_newValidator",
          "type": "address"
        }
      ],
      "name": "setValidator",
      "outputs": [],
      "payable": false,
      "stateMutability": "nonpayable",
      "type": "function"
    },
    {
      "constant": true,
      "inputs": [],
      "name": "getManager",
      "outputs": [
        {
          "name": "",
          "type": "address"
        }
      ],
      "payable": false,
      "stateMutability": "view",
      "type": "function"
    },
    {
      "constant": true,
      "inputs": [],
      "name": "getValidator",
      "outputs": [
        {
          "name": "",
          "type": "address"
        }
      ],
      "payable": false,
      "stateMutability": "view",
      "type": "function"
    }
  ],
  "bytecode": "0x6060604052341561000f57600080fd5b336000806101000a81548173ffffffffffffffffffffffffffffffffffffffff021916908373ffffffffffffffffffffffffffffffffffffffff16021790555033600160006101000a81548173ffffffffffffffffffffffffffffffffffffffff021916908373ffffffffffffffffffffffffffffffffffffffff1602179055506104c38061009f6000396000f300606060405260043610610078576000357c0100000000000000000000000000000000000000000000000000000000900463ffffffff1680631195e07e1461007d5780631327d3d8146100d25780633fe4676e1461010b578063cf73a1bc14610160578063d0ebdbe7146101b5578063d5009584146101ee575b600080fd5b341561008857600080fd5b610090610243565b604051808273ffffffffffffffffffffffffffffffffffffffff1673ffffffffffffffffffffffffffffffffffffffff16815260200191505060405180910390f35b34156100dd57600080fd5b610109600480803573ffffffffffffffffffffffffffffffffffffffff1690602001909190505061026d565b005b341561011657600080fd5b61011e610349565b604051808273ffffffffffffffffffffffffffffffffffffffff1673ffffffffffffffffffffffffffffffffffffffff16815260200191505060405180910390f35b341561016b57600080fd5b61017361036f565b604051808273ffffffffffffffffffffffffffffffffffffffff1673ffffffffffffffffffffffffffffffffffffffff16815260200191505060405180910390f35b34156101c057600080fd5b6101ec600480803573ffffffffffffffffffffffffffffffffffffffff16906020019091905050610394565b005b34156101f957600080fd5b61020161046e565b604051808273ffffffffffffffffffffffffffffffffffffffff1673ffffffffffffffffffffffffffffffffffffffff16815260200191505060405180910390f35b6000600160009054906101000a900473ffffffffffffffffffffffffffffffffffffffff16905090565b600160009054906101000a900473ffffffffffffffffffffffffffffffffffffffff1673ffffffffffffffffffffffffffffffffffffffff163373ffffffffffffffffffffffffffffffffffffffff161415156102c957600080fd5b600073ffffffffffffffffffffffffffffffffffffffff168173ffffffffffffffffffffffffffffffffffffffff161415151561030557600080fd5b80600160006101000a81548173ffffffffffffffffffffffffffffffffffffffff021916908373ffffffffffffffffffffffffffffffffffffffff16021790555050565b600160009054906101000a900473ffffffffffffffffffffffffffffffffffffffff1681565b6000809054906101000a900473ffffffffffffffffffffffffffffffffffffffff1681565b6000809054906101000a900473ffffffffffffffffffffffffffffffffffffffff1673ffffffffffffffffffffffffffffffffffffffff163373ffffffffffffffffffffffffffffffffffffffff161415156103ef57600080fd5b600073ffffffffffffffffffffffffffffffffffffffff168173ffffffffffffffffffffffffffffffffffffffff161415151561042b57600080fd5b806000806101000a81548173ffffffffffffffffffffffffffffffffffffffff021916908373ffffffffffffffffffffffffffffffffffffffff16021790555050565b60008060009054906101000a900473ffffffffffffffffffffffffffffffffffffffff169050905600a165627a7a723058206768d6219efd9d9fc3ea2d892b90a12a1d31f1a5b8af65a9f6f2560203214bd80029",
  "source": "pragma solidity ^0.4.18;\n\n/// @title The ONSAccessControl that manages access privileges to transaction.\n/// @author dalu\ncontract ONSAccessControl {\n\n  /*\n    manager : has a role that registers a user on the whitelist that is a list of user's addresses who can trade.\n    validator : has a role that allow t=\n  */\n  address public managerAddress;\n  address public validatorAddress;\n  \n  function ONSAccessControl() public {\n    // constructor\n    managerAddress = msg.sender;\n    validatorAddress = msg.sender;\n  }\n\n  modifier onlyManager() {\n    require(msg.sender == managerAddress);\n    _;\n  }\n\n  modifier onlyValidator() {\n    require(msg.sender == validatorAddress);\n    _;\n  }\n\n  function setManager(address _newManager) public onlyManager {\n    require(_newManager != address(0));\n\n    managerAddress = _newManager;\n  }\n\n  function setValidator(address _newValidator) public onlyValidator {\n    require(_newValidator != address(0));\n\n    validatorAddress = _newValidator;\n  }\n\n  function getManager() public view returns(address) {\n    return managerAddress;\n  }\n\n  function getValidator() public view returns(address) {\n    return validatorAddress;\n  }\n}\n",
  "sourcePath": "/mnt/c/projects/ons/ons-on-ethereum/src/contracts/ONSAccessControl.sol",
  "compiler": {
    "name": "solc",
    "version": "0.4.19+commit.c4cbbb05.Emscripten.clang"
  },
  "schemaVersion": "2.0.0",
  "updatedAt": "2018-03-22T07:03:59.356Z"
}