{
  "contractName": "ONSGS1Code",
  "abi": [
    {
      "constant": true,
      "inputs": [
        {
          "name": "",
          "type": "address"
        }
      ],
      "name": "owners",
      "outputs": [
        {
          "name": "",
          "type": "uint256"
        }
      ],
      "payable": false,
      "stateMutability": "view",
      "type": "function"
    },
    {
      "constant": false,
      "inputs": [
        {
          "name": "ownerAddress",
          "type": "address"
        }
      ],
      "name": "removeOwner",
      "outputs": [],
      "payable": false,
      "stateMutability": "nonpayable",
      "type": "function"
    },
    {
      "constant": true,
      "inputs": [],
      "name": "getOwnerList",
      "outputs": [
        {
          "name": "",
          "type": "address[]"
        }
      ],
      "payable": false,
      "stateMutability": "view",
      "type": "function"
    },
    {
      "constant": false,
      "inputs": [
        {
          "name": "ownerAddress",
          "type": "address"
        }
      ],
      "name": "addOwner",
      "outputs": [
        {
          "name": "",
          "type": "bool"
        }
      ],
      "payable": false,
      "stateMutability": "nonpayable",
      "type": "function"
    },
    {
      "constant": true,
      "inputs": [
        {
          "name": "ownerAddress",
          "type": "address"
        }
      ],
      "name": "isExistOwner",
      "outputs": [
        {
          "name": "",
          "type": "bool"
        }
      ],
      "payable": false,
      "stateMutability": "view",
      "type": "function"
    },
    {
      "constant": true,
      "inputs": [],
      "name": "managerAddress",
      "outputs": [
        {
          "name": "",
          "type": "address"
        }
      ],
      "payable": false,
      "stateMutability": "view",
      "type": "function"
    },
    {
      "constant": false,
      "inputs": [
        {
          "name": "_newManager",
          "type": "address"
        }
      ],
      "name": "setManager",
      "outputs": [],
      "payable": false,
      "stateMutability": "nonpayable",
      "type": "function"
    },
    {
      "constant": true,
      "inputs": [],
      "name": "getManager",
      "outputs": [
        {
          "name": "",
          "type": "address"
        }
      ],
      "payable": false,
      "stateMutability": "view",
      "type": "function"
    },
    {
      "inputs": [],
      "payable": false,
      "stateMutability": "nonpayable",
      "type": "constructor"
    },
    {
      "constant": true,
      "inputs": [
        {
          "name": "gs1Code",
          "type": "bytes32"
        }
      ],
      "name": "isExistGS1Code",
      "outputs": [
        {
          "name": "",
          "type": "bool"
        }
      ],
      "payable": false,
      "stateMutability": "view",
      "type": "function"
    },
    {
      "constant": true,
      "inputs": [
        {
          "name": "gs1Code",
          "type": "bytes32"
        }
      ],
      "name": "isOwner",
      "outputs": [
        {
          "name": "",
          "type": "bool"
        }
      ],
      "payable": false,
      "stateMutability": "view",
      "type": "function"
    },
    {
      "constant": true,
      "inputs": [
        {
          "name": "ownerAddress",
          "type": "address"
        }
      ],
      "name": "isExistGS1CodesOfOwner",
      "outputs": [
        {
          "name": "",
          "type": "bool"
        }
      ],
      "payable": false,
      "stateMutability": "view",
      "type": "function"
    },
    {
      "constant": false,
      "inputs": [
        {
          "name": "gs1Code",
          "type": "bytes32"
        },
        {
          "name": "state",
          "type": "uint8"
        }
      ],
      "name": "changeGS1CodeState",
      "outputs": [
        {
          "name": "",
          "type": "bool"
        }
      ],
      "payable": false,
      "stateMutability": "nonpayable",
      "type": "function"
    },
    {
      "constant": true,
      "inputs": [
        {
          "name": "gs1Code",
          "type": "bytes32"
        }
      ],
      "name": "getGS1CodeState",
      "outputs": [
        {
          "name": "",
          "type": "uint8"
        }
      ],
      "payable": false,
      "stateMutability": "view",
      "type": "function"
    },
    {
      "constant": false,
      "inputs": [
        {
          "name": "gs1Code",
          "type": "bytes32"
        },
        {
          "name": "newAddress",
          "type": "address"
        }
      ],
      "name": "changeOwnerOfGS1Code",
      "outputs": [
        {
          "name": "",
          "type": "bool"
        }
      ],
      "payable": false,
      "stateMutability": "nonpayable",
      "type": "function"
    },
    {
      "constant": false,
      "inputs": [
        {
          "name": "gs1Code",
          "type": "bytes32"
        },
        {
          "name": "ownerAddr",
          "type": "address"
        }
      ],
      "name": "addGS1Code",
      "outputs": [
        {
          "name": "",
          "type": "bool"
        }
      ],
      "payable": false,
      "stateMutability": "nonpayable",
      "type": "function"
    },
    {
      "constant": false,
      "inputs": [
        {
          "name": "gs1Code",
          "type": "bytes32"
        },
        {
          "name": "ownerAddr",
          "type": "address"
        }
      ],
      "name": "removeGS1Code",
      "outputs": [
        {
          "name": "",
          "type": "bool"
        }
      ],
      "payable": false,
      "stateMutability": "nonpayable",
      "type": "function"
    }
  ],
  "bytecode": "0x6060604052600060035534156200001557600080fd5b336000806101000a81548173ffffffffffffffffffffffffffffffffffffffff021916908373ffffffffffffffffffffffffffffffffffffffff160217905550600280548060010182816200006b9190620000c0565b9160005260206000209001600033909190916101000a81548173ffffffffffffffffffffffffffffffffffffffff021916908373ffffffffffffffffffffffffffffffffffffffff1602179055505062000117565b815481835581811511620000ea57818360005260206000209182019101620000e99190620000ef565b5b505050565b6200011491905b8082111562000110576000816000905550600101620000f6565b5090565b90565b61178f80620001276000396000f3006060604052600436106100e6576000357c0100000000000000000000000000000000000000000000000000000000900463ffffffff168063022914a7146100eb5780630ce06a1a14610138578063173825d91461017757806339adbccf146101b0578063573ef8171461020e578063581003701461025f5780635e92058a146102c95780636056e26e146103275780636741f2c6146103725780637065cb48146103bb578063ac0a1ecb1461040c578063cf73a1bc1461045d578063d0ebdbe7146104b2578063d5009584146104eb578063ee43f47614610540578063eeac39d81461059e575b600080fd5b34156100f657600080fd5b610122600480803573ffffffffffffffffffffffffffffffffffffffff169060200190919050506105dd565b6040518082815260200191505060405180910390f35b341561014357600080fd5b61015d6004808035600019169060200190919050506105f5565b604051808215151515815260200191505060405180910390f35b341561018257600080fd5b6101ae600480803573ffffffffffffffffffffffffffffffffffffffff16906020019091905050610630565b005b34156101bb57600080fd5b6101f460048080356000191690602001909190803573ffffffffffffffffffffffffffffffffffffffff169060200190919050506107a4565b604051808215151515815260200191505060405180910390f35b341561021957600080fd5b610245600480803573ffffffffffffffffffffffffffffffffffffffff16906020019091905050610b25565b604051808215151515815260200191505060405180910390f35b341561026a57600080fd5b610272610bd1565b6040518080602001828103825283818151815260200191508051906020019060200280838360005b838110156102b557808201518184015260208101905061029a565b505050509050019250505060405180910390f35b34156102d457600080fd5b61030d60048080356000191690602001909190803573ffffffffffffffffffffffffffffffffffffffff16906020019091905050610c65565b604051808215151515815260200191505060405180910390f35b341561033257600080fd5b61035860048080356000191690602001909190803560ff16906020019091905050610dc5565b604051808215151515815260200191505060405180910390f35b341561037d57600080fd5b610397600480803560001916906020019091905050610e98565b604051808260028111156103a757fe5b60ff16815260200191505060405180910390f35b34156103c657600080fd5b6103f2600480803573ffffffffffffffffffffffffffffffffffffffff16906020019091905050610ef9565b604051808215151515815260200191505060405180910390f35b341561041757600080fd5b610443600480803573ffffffffffffffffffffffffffffffffffffffff16906020019091905050611113565b604051808215151515815260200191505060405180910390f35b341561046857600080fd5b61047061116f565b604051808273ffffffffffffffffffffffffffffffffffffffff1673ffffffffffffffffffffffffffffffffffffffff16815260200191505060405180910390f35b34156104bd57600080fd5b6104e9600480803573ffffffffffffffffffffffffffffffffffffffff16906020019091905050611194565b005b34156104f657600080fd5b6104fe61126e565b604051808273ffffffffffffffffffffffffffffffffffffffff1673ffffffffffffffffffffffffffffffffffffffff16815260200191505060405180910390f35b341561054b57600080fd5b61058460048080356000191690602001909190803573ffffffffffffffffffffffffffffffffffffffff16906020019091905050611297565b604051808215151515815260200191505060405180910390f35b34156105a957600080fd5b6105c36004808035600019169060200190919050506115d2565b604051808215151515815260200191505060405180910390f35b60016020528060005260406000206000915090505481565b600080600460008460001916600019168152602001908152602001600020600301541115610626576001905061062b565b600090505b919050565b6000809054906101000a900473ffffffffffffffffffffffffffffffffffffffff1673ffffffffffffffffffffffffffffffffffffffff163373ffffffffffffffffffffffffffffffffffffffff1614151561068b57600080fd5b6000600160008373ffffffffffffffffffffffffffffffffffffffff1673ffffffffffffffffffffffffffffffffffffffff168152602001908152602001600020541115156106d957600080fd5b600160008273ffffffffffffffffffffffffffffffffffffffff1673ffffffffffffffffffffffffffffffffffffffff16815260200190815260200160002054600381905550600260035481548110151561073057fe5b906000526020600020900160006101000a81549073ffffffffffffffffffffffffffffffffffffffff0219169055600160008273ffffffffffffffffffffffffffffffffffffffff1673ffffffffffffffffffffffffffffffffffffffff1681526020019081526020016000206000905550565b6000806000809054906101000a900473ffffffffffffffffffffffffffffffffffffffff1673ffffffffffffffffffffffffffffffffffffffff163373ffffffffffffffffffffffffffffffffffffffff1614151561080257600080fd5b6001151561080f84611113565b151514151561081d57600080fd5b6000151561082a856105f5565b1515141561083b5760009150610b1e565b8273ffffffffffffffffffffffffffffffffffffffff1660046000866000191660001916815260200190815260200160002060000160009054906101000a900473ffffffffffffffffffffffffffffffffffffffff1673ffffffffffffffffffffffffffffffffffffffff161415806108da57508360001916600460008660001916600019168152602001908152602001600020600101546000191614155b156108e85760009150610b1e565b600090505b600660008473ffffffffffffffffffffffffffffffffffffffff1673ffffffffffffffffffffffffffffffffffffffff16815260200190815260200160002060010180549050811015610a14578360001916600660008573ffffffffffffffffffffffffffffffffffffffff1673ffffffffffffffffffffffffffffffffffffffff1681526020019081526020016000206001018281548110151561098e57fe5b906000526020600020900154600019161415610a0757600660008473ffffffffffffffffffffffffffffffffffffffff1673ffffffffffffffffffffffffffffffffffffffff168152602001908152602001600020600101818154811015156109f357fe5b906000526020600020900160009055610a14565b80806001019150506108ed565b6000600580549050118015610a6b57508360001916600560016004600088600019166000191681526020019081526020016000206003015403815481101515610a5957fe5b90600052602060002090015460001916145b15610ab057600560016004600087600019166000191681526020019081526020016000206003015403815481101515610aa057fe5b9060005260206000209001600090555b600460008560001916600019168152602001908152602001600020600080820160006101000a81549073ffffffffffffffffffffffffffffffffffffffff021916905560018201600090556002820160006101000a81549060ff021916905560038201600090555050600191505b5092915050565b60008173ffffffffffffffffffffffffffffffffffffffff16600660008473ffffffffffffffffffffffffffffffffffffffff1673ffffffffffffffffffffffffffffffffffffffff16815260200190815260200160002060000160009054906101000a900473ffffffffffffffffffffffffffffffffffffffff1673ffffffffffffffffffffffffffffffffffffffff16141515610bc75760019050610bcc565b600090505b919050565b610bd961165a565b6002805480602002602001604051908101604052809291908181526020018280548015610c5b57602002820191906000526020600020905b8160009054906101000a900473ffffffffffffffffffffffffffffffffffffffff1673ffffffffffffffffffffffffffffffffffffffff1681526020019060010190808311610c11575b5050505050905090565b6000336000600160008373ffffffffffffffffffffffffffffffffffffffff1673ffffffffffffffffffffffffffffffffffffffff16815260200190815260200160002054111515610cb657600080fd5b833373ffffffffffffffffffffffffffffffffffffffff1660046000836000191660001916815260200190815260200160002060000160009054906101000a900473ffffffffffffffffffffffffffffffffffffffff1673ffffffffffffffffffffffffffffffffffffffff16141515610d2f57600080fd5b600060046000876000191660001916815260200190815260200160002060030154111515610d5c57600080fd5b8360046000876000191660001916815260200190815260200160002060000160006101000a81548173ffffffffffffffffffffffffffffffffffffffff021916908373ffffffffffffffffffffffffffffffffffffffff16021790555060019250505092915050565b60008060009054906101000a900473ffffffffffffffffffffffffffffffffffffffff1673ffffffffffffffffffffffffffffffffffffffff163373ffffffffffffffffffffffffffffffffffffffff16141515610e2257600080fd5b600060046000856000191660001916815260200190815260200160002060030154111515610e4f57600080fd5b8160046000856000191660001916815260200190815260200160002060020160006101000a81548160ff02191690836002811115610e8957fe5b02179055506001905092915050565b60008060046000846000191660001916815260200190815260200160002060030154111515610ec657600080fd5b60046000836000191660001916815260200190815260200160002060020160009054906101000a900460ff169050919050565b60008060009054906101000a900473ffffffffffffffffffffffffffffffffffffffff1673ffffffffffffffffffffffffffffffffffffffff163373ffffffffffffffffffffffffffffffffffffffff16141515610f5657600080fd5b6000600160008473ffffffffffffffffffffffffffffffffffffffff1673ffffffffffffffffffffffffffffffffffffffff168152602001908152602001600020541115610fa7576000905061110e565b6000600354111561106057816002600354815481101515610fc457fe5b906000526020600020900160006101000a81548173ffffffffffffffffffffffffffffffffffffffff021916908373ffffffffffffffffffffffffffffffffffffffff160217905550600354600160008473ffffffffffffffffffffffffffffffffffffffff1673ffffffffffffffffffffffffffffffffffffffff168152602001908152602001600020819055506000600381905550611109565b600160028054806001018281611076919061166e565b9160005260206000209001600085909190916101000a81548173ffffffffffffffffffffffffffffffffffffffff021916908373ffffffffffffffffffffffffffffffffffffffff16021790555003600160008473ffffffffffffffffffffffffffffffffffffffff1673ffffffffffffffffffffffffffffffffffffffff168152602001908152602001600020819055505b600190505b919050565b600080600160008473ffffffffffffffffffffffffffffffffffffffff1673ffffffffffffffffffffffffffffffffffffffff168152602001908152602001600020541115611165576001905061116a565b600090505b919050565b6000809054906101000a900473ffffffffffffffffffffffffffffffffffffffff1681565b6000809054906101000a900473ffffffffffffffffffffffffffffffffffffffff1673ffffffffffffffffffffffffffffffffffffffff163373ffffffffffffffffffffffffffffffffffffffff161415156111ef57600080fd5b600073ffffffffffffffffffffffffffffffffffffffff168173ffffffffffffffffffffffffffffffffffffffff161415151561122b57600080fd5b806000806101000a81548173ffffffffffffffffffffffffffffffffffffffff021916908373ffffffffffffffffffffffffffffffffffffffff16021790555050565b60008060009054906101000a900473ffffffffffffffffffffffffffffffffffffffff16905090565b6000806000809054906101000a900473ffffffffffffffffffffffffffffffffffffffff1673ffffffffffffffffffffffffffffffffffffffff163373ffffffffffffffffffffffffffffffffffffffff161415156112f557600080fd5b6000151561130284611113565b1515141561131357600091506115cb565b60011515611320856105f5565b1515141561133157600091506115cb565b60058054806001018281611345919061169a565b916000526020600020900160008690919091509060001916905590506080604051908101604052808473ffffffffffffffffffffffffffffffffffffffff16815260200185600019168152602001600160028111156113a057fe5b81526020018281525060046000866000191660001916815260200190815260200160002060008201518160000160006101000a81548173ffffffffffffffffffffffffffffffffffffffff021916908373ffffffffffffffffffffffffffffffffffffffff1602179055506020820151816001019060001916905560408201518160020160006101000a81548160ff0219169083600281111561143f57fe5b0217905550606082015181600301559050506000151561145e84610b25565b151514156115575760408051908101604052808473ffffffffffffffffffffffffffffffffffffffff168152602001600060405180591061149c5750595b9080825280602002602001820160405250815250600660008573ffffffffffffffffffffffffffffffffffffffff1673ffffffffffffffffffffffffffffffffffffffff16815260200190815260200160002060008201518160000160006101000a81548173ffffffffffffffffffffffffffffffffffffffff021916908373ffffffffffffffffffffffffffffffffffffffff16021790555060208201518160010190805190602001906115529291906116c6565b509050505b600660008473ffffffffffffffffffffffffffffffffffffffff1673ffffffffffffffffffffffffffffffffffffffff16815260200190815260200160002060010180548060010182816115ab919061169a565b916000526020600020900160008690919091509060001916905550600191505b5092915050565b60003373ffffffffffffffffffffffffffffffffffffffff1660046000846000191660001916815260200190815260200160002060000160009054906101000a900473ffffffffffffffffffffffffffffffffffffffff1673ffffffffffffffffffffffffffffffffffffffff161415156116505760009050611655565b600190505b919050565b602060405190810160405280600081525090565b815481835581811511611695578183600052602060002091820191016116949190611719565b5b505050565b8154818355818115116116c1578183600052602060002091820191016116c0919061173e565b5b505050565b828054828255906000526020600020908101928215611708579160200282015b828111156117075782518290600019169055916020019190600101906116e6565b5b509050611715919061173e565b5090565b61173b91905b8082111561173757600081600090555060010161171f565b5090565b90565b61176091905b8082111561175c576000816000905550600101611744565b5090565b905600a165627a7a723058201b8ea4d829dbd6737fad5c67a32c49169adb7e564b556b7397ae9757664198980029",
  "source": "pragma solidity ^0.4.18;\nimport \"./ONSManager.sol\";\n\n/*\n  array에서 item을 삭제하는 경우 index가 변경되기 때문에\n  array에서 삭제할 수가 없다.\n  이 문제를 어떻게 해결할 것인지 고민할 필요가 있다.\n    -> array 형태의 data를 모두 mapping array로 변경해 보자.\n*/\ncontract ONSGS1Code is ONSManager{\n\n  enum GS1CodeState {NONE, INACTIVE, ACTIVE}\n\n  struct GS1Code {\n    address owner;\n    bytes32 gs1Code;\n    GS1CodeState state; //0: not belong to anyone, 1 : inactive state, 2: active state\n    uint256 index; //always from 1, for gs1CodeIterList\n  }\n\n  //ONS Smart Contract에 저장된 모든 gs1 codes\n  //GS1Code 구조체의 배열\n  mapping(bytes32=>GS1Code) gs1CodeList;\n  //in advance, for iteration.\n  bytes32[] gs1CodeIterList;\n\n  //Owner가 가진 gs1 code의 정보\n  struct GS1CodesOfOwner {\n    address owner;\n    //owner가 소유한 gs1 codes\n    bytes32[] gs1CodeList;\n  }\n\n  //ONSAccessControl에 owners mapping array에 존재하는\n  //owner들의 GS1CodesOfOwner data list\n  mapping(address=>GS1CodesOfOwner) gs1CodeListOfOwner;\n\n  //owner allow user to add ons records for gs1 code.\n  //mapping(bytes32 => address[]) public allowedProviderMapForGS1Code;\n  //address[] allowedProviders;\n\n  function ONSGS1Code() {\n  }\n\n  modifier onlyOwner(bytes32 gs1Code) {\n    require(gs1CodeList[gs1Code].owner == msg.sender);\n    _;\n  }\n\n  function isExistGS1Code(bytes32 gs1Code) public view returns(bool) {\n    //gs1CodeList에 owner가 정상적인지 확인.\n    if (gs1CodeList[gs1Code].index > 0)\n      return true;\n    return false;\n  }\n\n  function isOwner(bytes32 gs1Code) public view returns(bool) {\n    if (gs1CodeList[gs1Code].owner != msg.sender)\n      return false;\n    return true;\n  }\n\n  //owner에게 GS1CodesOfOwner 가 생성되어 있는지 검사함.\n  function isExistGS1CodesOfOwner(address ownerAddress) public view returns(bool) {\n    //ownerGS1CodeListIndex에서 gs1CodeListOfOwner의 찾고,\n    //gs1CodeListOfOwner의 owner가 동일한지 확인.\n    if (gs1CodeListOfOwner[ownerAddress].owner != ownerAddress)\n      return true;\n    return false;\n  }\n\n  //gs1 code의 상태 변경.\n  function changeGS1CodeState(bytes32 gs1Code, GS1CodeState state)\n  public\n  onlyManager\n  returns(bool)\n  {\n    require(gs1CodeList[gs1Code].index > 0);\n    gs1CodeList[gs1Code].state = state;\n    return true;\n  }\n\n  //gs1 code의 상태를 얻어옴.\n  function getGS1CodeState(bytes32 gs1Code)\n  public\n  view\n  returns(GS1CodeState)\n  {\n    require(gs1CodeList[gs1Code].index > 0);\n    return gs1CodeList[gs1Code].state;\n  }\n\n  //gs1 code의 owner 변경\n  function changeOwnerOfGS1Code(bytes32 gs1Code, address newAddress)\n  public\n  onlyExistOwner(msg.sender)\n  onlyOwner(gs1Code)\n  returns(bool)\n  {\n    require(gs1CodeList[gs1Code].index > 0);\n    gs1CodeList[gs1Code].owner = newAddress;\n    return true;\n  }\n\n  //owner에게 gs1 code를 할당한다.\n  //권한은 mananger에게 줘야 할 것인가??\n  function addGS1Code(bytes32 gs1Code, address ownerAddr)\n  public\n  onlyManager()\n  returns(bool)\n  {\n    //owner가 존재하지 않으면 등록 불가.\n    //owner만이 gs1code만을 등록할 수 있음.\n    if (isExistOwner(ownerAddr) == false)\n      return false;\n\n    //gs1 code가 이미 등록되어 있으면 등록불가\n    if (isExistGS1Code(gs1Code) == true)\n      return false;\n\n    //GS1Code 를 생성하고 gs1CodeList에 추가함.\n    //추가할 때 index를 얻어서 저장해 놓음, 나중에 참조할 때는 -1을 빼야한다.\n    uint256 iterIdx = gs1CodeIterList.push(gs1Code);\n    gs1CodeList[gs1Code] = GS1Code(ownerAddr, gs1Code, GS1CodeState.INACTIVE, iterIdx);\n\n    //GS1CodesOfOwner 변수를 선언/\n    //-> owner의 GS1CodesOfOwner가 없으면 생성할 필요가 있기 때문\n    //GS1CodesOfOwner gs1CodesOfOwner;\n\n    //owner의 GS1CodesOfOwner가 이미 만들어져 있는지 확인\n    if (isExistGS1CodesOfOwner(ownerAddr) == false) {\n      //없다면 새롭게 생성하여 등록함.\n      gs1CodeListOfOwner[ownerAddr] = GS1CodesOfOwner({owner:ownerAddr, gs1CodeList:new bytes32[](0)});\n    }\n\n    //owner의 GS1CodesOfOwner에 gs1 code를 저장함.\n    //소유권이 생긴 것임..\n    gs1CodeListOfOwner[ownerAddr].gs1CodeList.push(gs1Code);\n    //allowedProviderMapForGS1Code[gs1Code].push(msg.sender);\n    return true;\n  }\n\n  //owner에게 할당된 gs1 code를 삭제.\n  //권한은 mananger에게만? 줘야 할 것인가?\n  function removeGS1Code(bytes32 gs1Code, address ownerAddr)\n  public\n  onlyManager()\n  returns(bool)\n  {\n    require(isExistOwner(ownerAddr) == true);\n\n    //gs1 code가 이미 등록되어 있지 않으면 삭제불가\n    if (isExistGS1Code(gs1Code) == false)\n      return false;\n\n    if (gs1CodeList[gs1Code].owner != ownerAddr\n      || gs1CodeList[gs1Code].gs1Code != gs1Code)\n      return false;\n\n    /*\n      array의 item을 삭제할 경우에 실제 array가 줄어드는지 확인이 필요하다.(length 포함)\n    */\n    for (uint i = 0; i < gs1CodeListOfOwner[ownerAddr].gs1CodeList.length; i++) {\n      if (gs1CodeListOfOwner[ownerAddr].gs1CodeList[i] == gs1Code) {\n        delete gs1CodeListOfOwner[ownerAddr].gs1CodeList[i];\n        break;\n      }\n    }\n\n    if (gs1CodeIterList.length > 0 && gs1CodeIterList[gs1CodeList[gs1Code].index-1] == gs1Code)\n      delete gs1CodeIterList[gs1CodeList[gs1Code].index-1];\n\n    delete gs1CodeList[gs1Code];\n    return true;\n  }\n\n}\n",
  "sourcePath": "/mnt/c/projects/ons/ons-on-ethereum/src/contracts/ONSGS1Code.sol",
  "compiler": {
    "name": "solc",
    "version": "0.4.19+commit.c4cbbb05.Emscripten.clang"
  },
  "schemaVersion": "2.0.0",
  "updatedAt": "2018-04-12T17:09:12.468Z"
}