{
  "contractName": "ONSGS1Code",
  "abi": [
    {
      "constant": true,
      "inputs": [
        {
          "name": "",
          "type": "address"
        }
      ],
      "name": "owners",
      "outputs": [
        {
          "name": "",
          "type": "uint256"
        }
      ],
      "payable": false,
      "stateMutability": "view",
      "type": "function"
    },
    {
      "constant": false,
      "inputs": [
        {
          "name": "ownerAddress",
          "type": "address"
        }
      ],
      "name": "removeOwner",
      "outputs": [],
      "payable": false,
      "stateMutability": "nonpayable",
      "type": "function"
    },
    {
      "constant": true,
      "inputs": [],
      "name": "getOwnerList",
      "outputs": [
        {
          "name": "",
          "type": "address[]"
        }
      ],
      "payable": false,
      "stateMutability": "view",
      "type": "function"
    },
    {
      "constant": false,
      "inputs": [
        {
          "name": "ownerAddress",
          "type": "address"
        }
      ],
      "name": "addOwner",
      "outputs": [
        {
          "name": "",
          "type": "bool"
        }
      ],
      "payable": false,
      "stateMutability": "nonpayable",
      "type": "function"
    },
    {
      "constant": true,
      "inputs": [
        {
          "name": "ownerAddress",
          "type": "address"
        }
      ],
      "name": "isExistOwner",
      "outputs": [
        {
          "name": "",
          "type": "bool"
        }
      ],
      "payable": false,
      "stateMutability": "view",
      "type": "function"
    },
    {
      "constant": true,
      "inputs": [],
      "name": "managerAddress",
      "outputs": [
        {
          "name": "",
          "type": "address"
        }
      ],
      "payable": false,
      "stateMutability": "view",
      "type": "function"
    },
    {
      "constant": false,
      "inputs": [
        {
          "name": "_newManager",
          "type": "address"
        }
      ],
      "name": "setManager",
      "outputs": [],
      "payable": false,
      "stateMutability": "nonpayable",
      "type": "function"
    },
    {
      "constant": true,
      "inputs": [],
      "name": "getManager",
      "outputs": [
        {
          "name": "",
          "type": "address"
        }
      ],
      "payable": false,
      "stateMutability": "view",
      "type": "function"
    },
    {
      "constant": true,
      "inputs": [
        {
          "name": "addr",
          "type": "address"
        }
      ],
      "name": "isManager",
      "outputs": [
        {
          "name": "",
          "type": "bool"
        }
      ],
      "payable": false,
      "stateMutability": "view",
      "type": "function"
    },
    {
      "inputs": [],
      "payable": false,
      "stateMutability": "nonpayable",
      "type": "constructor"
    },
    {
      "constant": true,
      "inputs": [
        {
          "name": "gs1Code",
          "type": "bytes32"
        }
      ],
      "name": "isExistGS1Code",
      "outputs": [
        {
          "name": "",
          "type": "bool"
        }
      ],
      "payable": false,
      "stateMutability": "view",
      "type": "function"
    },
    {
      "constant": true,
      "inputs": [
        {
          "name": "gs1Code",
          "type": "bytes32"
        }
      ],
      "name": "isOwner",
      "outputs": [
        {
          "name": "",
          "type": "bool"
        }
      ],
      "payable": false,
      "stateMutability": "view",
      "type": "function"
    },
    {
      "constant": false,
      "inputs": [
        {
          "name": "gs1Code",
          "type": "bytes32"
        },
        {
          "name": "state",
          "type": "uint8"
        }
      ],
      "name": "changeGS1CodeState",
      "outputs": [
        {
          "name": "",
          "type": "bool"
        }
      ],
      "payable": false,
      "stateMutability": "nonpayable",
      "type": "function"
    },
    {
      "constant": true,
      "inputs": [
        {
          "name": "gs1Code",
          "type": "bytes32"
        }
      ],
      "name": "getGS1CodeState",
      "outputs": [
        {
          "name": "",
          "type": "uint8"
        }
      ],
      "payable": false,
      "stateMutability": "view",
      "type": "function"
    },
    {
      "constant": true,
      "inputs": [
        {
          "name": "gs1Code",
          "type": "bytes32"
        }
      ],
      "name": "getGS1CodeOwner",
      "outputs": [
        {
          "name": "",
          "type": "address"
        }
      ],
      "payable": false,
      "stateMutability": "view",
      "type": "function"
    },
    {
      "constant": false,
      "inputs": [
        {
          "name": "gs1Code",
          "type": "bytes32"
        },
        {
          "name": "newAddress",
          "type": "address"
        }
      ],
      "name": "changeOwnerOfGS1Code",
      "outputs": [
        {
          "name": "",
          "type": "bool"
        }
      ],
      "payable": false,
      "stateMutability": "nonpayable",
      "type": "function"
    },
    {
      "constant": false,
      "inputs": [
        {
          "name": "gs1Code",
          "type": "bytes32"
        },
        {
          "name": "ownerAddr",
          "type": "address"
        }
      ],
      "name": "addGS1Code",
      "outputs": [
        {
          "name": "",
          "type": "bool"
        }
      ],
      "payable": false,
      "stateMutability": "nonpayable",
      "type": "function"
    },
    {
      "constant": false,
      "inputs": [
        {
          "name": "gs1Code",
          "type": "bytes32"
        },
        {
          "name": "ownerAddr",
          "type": "address"
        }
      ],
      "name": "removeGS1Code",
      "outputs": [
        {
          "name": "",
          "type": "bool"
        }
      ],
      "payable": false,
      "stateMutability": "nonpayable",
      "type": "function"
    },
    {
      "constant": true,
      "inputs": [],
      "name": "getGs1CodeList",
      "outputs": [
        {
          "name": "",
          "type": "bytes32[]"
        }
      ],
      "payable": false,
      "stateMutability": "view",
      "type": "function"
    }
  ],
  "bytecode": "0x6060604052600060035534156200001557600080fd5b336000806101000a81548173ffffffffffffffffffffffffffffffffffffffff021916908373ffffffffffffffffffffffffffffffffffffffff160217905550600280548060010182816200006b9190620000c0565b9160005260206000209001600033909190916101000a81548173ffffffffffffffffffffffffffffffffffffffff021916908373ffffffffffffffffffffffffffffffffffffffff1602179055505062000117565b815481835581811511620000ea57818360005260206000209182019101620000e99190620000ef565b5b505050565b6200011491905b8082111562000110576000816000905550600101620000f6565b5090565b90565b611c6080620001276000396000f3006060604052600436106100fc576000357c0100000000000000000000000000000000000000000000000000000000900463ffffffff168063022914a7146101015780630ce06a1a1461014e578063173825d91461018d57806339adbccf146101c657806347efab2114610224578063581003701461028e5780635e92058a146102f85780636056e26e146103565780636741f2c6146103a15780637065cb48146103ea578063ac0a1ecb1461043b578063be8a640f1461048c578063cf73a1bc146104f3578063d0ebdbe714610548578063d500958414610581578063ee43f476146105d6578063eeac39d814610634578063f3ae241514610673575b600080fd5b341561010c57600080fd5b610138600480803573ffffffffffffffffffffffffffffffffffffffff169060200190919050506106c4565b6040518082815260200191505060405180910390f35b341561015957600080fd5b6101736004808035600019169060200190919050506106dc565b604051808215151515815260200191505060405180910390f35b341561019857600080fd5b6101c4600480803573ffffffffffffffffffffffffffffffffffffffff16906020019091905050610717565b005b34156101d157600080fd5b61020a60048080356000191690602001909190803573ffffffffffffffffffffffffffffffffffffffff1690602001909190505061088b565b604051808215151515815260200191505060405180910390f35b341561022f57600080fd5b610237610c0c565b6040518080602001828103825283818151815260200191508051906020019060200280838360005b8381101561027a57808201518184015260208101905061025f565b505050509050019250505060405180910390f35b341561029957600080fd5b6102a1610d13565b6040518080602001828103825283818151815260200191508051906020019060200280838360005b838110156102e45780820151818401526020810190506102c9565b505050509050019250505060405180910390f35b341561030357600080fd5b61033c60048080356000191690602001909190803573ffffffffffffffffffffffffffffffffffffffff16906020019091905050610da7565b604051808215151515815260200191505060405180910390f35b341561036157600080fd5b61038760048080356000191690602001909190803560ff16906020019091905050610f75565b604051808215151515815260200191505060405180910390f35b34156103ac57600080fd5b6103c6600480803560001916906020019091905050611125565b604051808260028111156103d657fe5b60ff16815260200191505060405180910390f35b34156103f557600080fd5b610421600480803573ffffffffffffffffffffffffffffffffffffffff16906020019091905050611186565b604051808215151515815260200191505060405180910390f35b341561044657600080fd5b610472600480803573ffffffffffffffffffffffffffffffffffffffff169060200190919050506113a0565b604051808215151515815260200191505060405180910390f35b341561049757600080fd5b6104b16004808035600019169060200190919050506113fc565b604051808273ffffffffffffffffffffffffffffffffffffffff1673ffffffffffffffffffffffffffffffffffffffff16815260200191505060405180910390f35b34156104fe57600080fd5b610506611516565b604051808273ffffffffffffffffffffffffffffffffffffffff1673ffffffffffffffffffffffffffffffffffffffff16815260200191505060405180910390f35b341561055357600080fd5b61057f600480803573ffffffffffffffffffffffffffffffffffffffff1690602001909190505061153b565b005b341561058c57600080fd5b610594611615565b604051808273ffffffffffffffffffffffffffffffffffffffff1673ffffffffffffffffffffffffffffffffffffffff16815260200191505060405180910390f35b34156105e157600080fd5b61061a60048080356000191690602001909190803573ffffffffffffffffffffffffffffffffffffffff1690602001909190505061163e565b604051808215151515815260200191505060405180910390f35b341561063f57600080fd5b610659600480803560001916906020019091905050611979565b604051808215151515815260200191505060405180910390f35b341561067e57600080fd5b6106aa600480803573ffffffffffffffffffffffffffffffffffffffff16906020019091905050611a01565b604051808215151515815260200191505060405180910390f35b60016020528060005260406000206000915090505481565b60008060046000846000191660001916815260200190815260200160002060030154111561070d5760019050610712565b600090505b919050565b6000809054906101000a900473ffffffffffffffffffffffffffffffffffffffff1673ffffffffffffffffffffffffffffffffffffffff163373ffffffffffffffffffffffffffffffffffffffff1614151561077257600080fd5b6000600160008373ffffffffffffffffffffffffffffffffffffffff1673ffffffffffffffffffffffffffffffffffffffff168152602001908152602001600020541115156107c057600080fd5b600160008273ffffffffffffffffffffffffffffffffffffffff1673ffffffffffffffffffffffffffffffffffffffff16815260200190815260200160002054600381905550600260035481548110151561081757fe5b906000526020600020900160006101000a81549073ffffffffffffffffffffffffffffffffffffffff0219169055600160008273ffffffffffffffffffffffffffffffffffffffff1673ffffffffffffffffffffffffffffffffffffffff1681526020019081526020016000206000905550565b6000806000809054906101000a900473ffffffffffffffffffffffffffffffffffffffff1673ffffffffffffffffffffffffffffffffffffffff163373ffffffffffffffffffffffffffffffffffffffff161415156108e957600080fd5b600115156108f6846113a0565b151514151561090457600080fd5b60001515610911856106dc565b151514156109225760009150610c05565b8273ffffffffffffffffffffffffffffffffffffffff1660046000866000191660001916815260200190815260200160002060000160009054906101000a900473ffffffffffffffffffffffffffffffffffffffff1673ffffffffffffffffffffffffffffffffffffffff161415806109c157508360001916600460008660001916600019168152602001908152602001600020600101546000191614155b156109cf5760009150610c05565b600090505b600660008473ffffffffffffffffffffffffffffffffffffffff1673ffffffffffffffffffffffffffffffffffffffff16815260200190815260200160002060010180549050811015610afb578360001916600660008573ffffffffffffffffffffffffffffffffffffffff1673ffffffffffffffffffffffffffffffffffffffff16815260200190815260200160002060010182815481101515610a7557fe5b906000526020600020900154600019161415610aee57600660008473ffffffffffffffffffffffffffffffffffffffff1673ffffffffffffffffffffffffffffffffffffffff16815260200190815260200160002060010181815481101515610ada57fe5b906000526020600020900160009055610afb565b80806001019150506109d4565b6000600580549050118015610b5257508360001916600560016004600088600019166000191681526020019081526020016000206003015403815481101515610b4057fe5b90600052602060002090015460001916145b15610b9757600560016004600087600019166000191681526020019081526020016000206003015403815481101515610b8757fe5b9060005260206000209001600090555b600460008560001916600019168152602001908152602001600020600080820160006101000a81549073ffffffffffffffffffffffffffffffffffffffff021916905560018201600090556002820160006101000a81549060ff021916905560038201600090555050600191505b5092915050565b610c14611b17565b6000809054906101000a900473ffffffffffffffffffffffffffffffffffffffff1673ffffffffffffffffffffffffffffffffffffffff163373ffffffffffffffffffffffffffffffffffffffff161480610cae57506000600160003373ffffffffffffffffffffffffffffffffffffffff1673ffffffffffffffffffffffffffffffffffffffff16815260200190815260200160002054115b1515610cb957600080fd5b6005805480602002602001604051908101604052809291908181526020018280548015610d0957602002820191906000526020600020905b81546000191681526020019060010190808311610cf1575b5050505050905090565b610d1b611b2b565b6002805480602002602001604051908101604052809291908181526020018280548015610d9d57602002820191906000526020600020905b8160009054906101000a900473ffffffffffffffffffffffffffffffffffffffff1673ffffffffffffffffffffffffffffffffffffffff1681526020019060010190808311610d53575b5050505050905090565b60008060009054906101000a900473ffffffffffffffffffffffffffffffffffffffff1673ffffffffffffffffffffffffffffffffffffffff163373ffffffffffffffffffffffffffffffffffffffff161480610e4357506000600160003373ffffffffffffffffffffffffffffffffffffffff1673ffffffffffffffffffffffffffffffffffffffff16815260200190815260200160002054115b1515610e4e57600080fd5b600060046000856000191660001916815260200190815260200160002060030154111515610e7b57600080fd5b60046000846000191660001916815260200190815260200160002060000160009054906101000a900473ffffffffffffffffffffffffffffffffffffffff1673ffffffffffffffffffffffffffffffffffffffff163373ffffffffffffffffffffffffffffffffffffffff161480610eff575060011515610efb33611a01565b1515145b15610f6a578160046000856000191660001916815260200190815260200160002060000160006101000a81548173ffffffffffffffffffffffffffffffffffffffff021916908373ffffffffffffffffffffffffffffffffffffffff16021790555060019050610f6f565b600090505b92915050565b60008060009054906101000a900473ffffffffffffffffffffffffffffffffffffffff1673ffffffffffffffffffffffffffffffffffffffff163373ffffffffffffffffffffffffffffffffffffffff16148061101157506000600160003373ffffffffffffffffffffffffffffffffffffffff1673ffffffffffffffffffffffffffffffffffffffff16815260200190815260200160002054115b151561101c57600080fd5b60006004600085600019166000191681526020019081526020016000206003015411151561104957600080fd5b60046000846000191660001916815260200190815260200160002060000160009054906101000a900473ffffffffffffffffffffffffffffffffffffffff1673ffffffffffffffffffffffffffffffffffffffff163373ffffffffffffffffffffffffffffffffffffffff1614806110cd5750600115156110c933611a01565b1515145b1561111a578160046000856000191660001916815260200190815260200160002060020160006101000a81548160ff0219169083600281111561110c57fe5b02179055506001905061111f565b600090505b92915050565b6000806004600084600019166000191681526020019081526020016000206003015411151561115357600080fd5b60046000836000191660001916815260200190815260200160002060020160009054906101000a900460ff169050919050565b60008060009054906101000a900473ffffffffffffffffffffffffffffffffffffffff1673ffffffffffffffffffffffffffffffffffffffff163373ffffffffffffffffffffffffffffffffffffffff161415156111e357600080fd5b6000600160008473ffffffffffffffffffffffffffffffffffffffff1673ffffffffffffffffffffffffffffffffffffffff168152602001908152602001600020541115611234576000905061139b565b600060035411156112ed5781600260035481548110151561125157fe5b906000526020600020900160006101000a81548173ffffffffffffffffffffffffffffffffffffffff021916908373ffffffffffffffffffffffffffffffffffffffff160217905550600354600160008473ffffffffffffffffffffffffffffffffffffffff1673ffffffffffffffffffffffffffffffffffffffff168152602001908152602001600020819055506000600381905550611396565b6001600280548060010182816113039190611b3f565b9160005260206000209001600085909190916101000a81548173ffffffffffffffffffffffffffffffffffffffff021916908373ffffffffffffffffffffffffffffffffffffffff16021790555003600160008473ffffffffffffffffffffffffffffffffffffffff1673ffffffffffffffffffffffffffffffffffffffff168152602001908152602001600020819055505b600190505b919050565b600080600160008473ffffffffffffffffffffffffffffffffffffffff1673ffffffffffffffffffffffffffffffffffffffff1681526020019081526020016000205411156113f257600190506113f7565b600090505b919050565b60008060009054906101000a900473ffffffffffffffffffffffffffffffffffffffff1673ffffffffffffffffffffffffffffffffffffffff163373ffffffffffffffffffffffffffffffffffffffff16148061149857506000600160003373ffffffffffffffffffffffffffffffffffffffff1673ffffffffffffffffffffffffffffffffffffffff16815260200190815260200160002054115b15156114a357600080fd5b6000600460008460001916600019168152602001908152602001600020600301541115156114d057600080fd5b60046000836000191660001916815260200190815260200160002060000160009054906101000a900473ffffffffffffffffffffffffffffffffffffffff169050919050565b6000809054906101000a900473ffffffffffffffffffffffffffffffffffffffff1681565b6000809054906101000a900473ffffffffffffffffffffffffffffffffffffffff1673ffffffffffffffffffffffffffffffffffffffff163373ffffffffffffffffffffffffffffffffffffffff1614151561159657600080fd5b600073ffffffffffffffffffffffffffffffffffffffff168173ffffffffffffffffffffffffffffffffffffffff16141515156115d257600080fd5b806000806101000a81548173ffffffffffffffffffffffffffffffffffffffff021916908373ffffffffffffffffffffffffffffffffffffffff16021790555050565b60008060009054906101000a900473ffffffffffffffffffffffffffffffffffffffff16905090565b6000806000809054906101000a900473ffffffffffffffffffffffffffffffffffffffff1673ffffffffffffffffffffffffffffffffffffffff163373ffffffffffffffffffffffffffffffffffffffff1614151561169c57600080fd5b600015156116a9846113a0565b151514156116ba5760009150611972565b600115156116c7856106dc565b151514156116d85760009150611972565b600580548060010182816116ec9190611b6b565b916000526020600020900160008690919091509060001916905590506080604051908101604052808473ffffffffffffffffffffffffffffffffffffffff168152602001856000191681526020016001600281111561174757fe5b81526020018281525060046000866000191660001916815260200190815260200160002060008201518160000160006101000a81548173ffffffffffffffffffffffffffffffffffffffff021916908373ffffffffffffffffffffffffffffffffffffffff1602179055506020820151816001019060001916905560408201518160020160006101000a81548160ff021916908360028111156117e657fe5b0217905550606082015181600301559050506000151561180584611a6b565b151514156118fe5760408051908101604052808473ffffffffffffffffffffffffffffffffffffffff16815260200160006040518059106118435750595b9080825280602002602001820160405250815250600660008573ffffffffffffffffffffffffffffffffffffffff1673ffffffffffffffffffffffffffffffffffffffff16815260200190815260200160002060008201518160000160006101000a81548173ffffffffffffffffffffffffffffffffffffffff021916908373ffffffffffffffffffffffffffffffffffffffff16021790555060208201518160010190805190602001906118f9929190611b97565b509050505b600660008473ffffffffffffffffffffffffffffffffffffffff1673ffffffffffffffffffffffffffffffffffffffff16815260200190815260200160002060010180548060010182816119529190611b6b565b916000526020600020900160008690919091509060001916905550600191505b5092915050565b60003373ffffffffffffffffffffffffffffffffffffffff1660046000846000191660001916815260200190815260200160002060000160009054906101000a900473ffffffffffffffffffffffffffffffffffffffff1673ffffffffffffffffffffffffffffffffffffffff161415156119f757600090506119fc565b600190505b919050565b60008060009054906101000a900473ffffffffffffffffffffffffffffffffffffffff1673ffffffffffffffffffffffffffffffffffffffff168273ffffffffffffffffffffffffffffffffffffffff161415611a615760019050611a66565b600090505b919050565b60008173ffffffffffffffffffffffffffffffffffffffff16600660008473ffffffffffffffffffffffffffffffffffffffff1673ffffffffffffffffffffffffffffffffffffffff16815260200190815260200160002060000160009054906101000a900473ffffffffffffffffffffffffffffffffffffffff1673ffffffffffffffffffffffffffffffffffffffff16141515611b0d5760019050611b12565b600090505b919050565b602060405190810160405280600081525090565b602060405190810160405280600081525090565b815481835581811511611b6657818360005260206000209182019101611b659190611bea565b5b505050565b815481835581811511611b9257818360005260206000209182019101611b919190611c0f565b5b505050565b828054828255906000526020600020908101928215611bd9579160200282015b82811115611bd8578251829060001916905591602001919060010190611bb7565b5b509050611be69190611c0f565b5090565b611c0c91905b80821115611c08576000816000905550600101611bf0565b5090565b90565b611c3191905b80821115611c2d576000816000905550600101611c15565b5090565b905600a165627a7a72305820a80969786d46082f47710732944a108f654d1e4280a7311b6622b5534e8f9d780029",
  "source": "pragma solidity ^0.4.18;\nimport \"./ONSManager.sol\";\n\n/*\n  array에서 item을 삭제하는 경우 index가 변경되기 때문에\n  array에서 삭제할 수가 없다.\n  이 문제를 어떻게 해결할 것인지 고민할 필요가 있다.\n    -> array 형태의 data를 모두 mapping array로 변경해 보자.\n*/\ncontract ONSGS1Code is ONSManager{\n\n  enum GS1CodeState {NONE, INACTIVE, ACTIVE}\n\n  struct GS1Code {\n    address owner;\n    bytes32 gs1Code;\n    GS1CodeState state; //0: not belong to anyone, 1 : inactive state, 2: active state\n    uint256 index; //always from 1, for gs1CodeIterList\n  }\n\n  //ONS Smart Contract에 저장된 모든 gs1 codes\n  //GS1Code 구조체의 배열\n  mapping(bytes32=>GS1Code) gs1CodeList;\n  //in advance, for iteration.\n  bytes32[] gs1CodeIterList;\n\n  //Owner가 가진 gs1 code의 정보\n  struct GS1CodesOfOwner {\n    address owner;\n    //owner가 소유한 gs1 codes\n    bytes32[] gs1CodeList;\n  }\n\n  //ONSAccessControl에 owners mapping array에 존재하는\n  //owner들의 GS1CodesOfOwner data list\n  mapping(address=>GS1CodesOfOwner) gs1CodeListOfOwner;\n\n  struct Provider {\n    uint allowedProviderListPointer; // needed to delete a \"allowedProvider\"\n    address[] providers;\n    mapping(address => uint) providersPointer; // 4294967295 pointer is reserved as existence check\n  }\n\n  //owner allow user to add ons records for gs1 code.\n  //mapping(bytes32 => address[]) public allowedProviderMapForGS1Code;\n  //address[] allowedProviders;\n\n  function ONSGS1Code() {\n  }\n\n  modifier onlyOwner(bytes32 gs1Code) {\n    require(gs1CodeList[gs1Code].owner == msg.sender);\n    _;\n  }\n\n  function isExistGS1Code(bytes32 gs1Code) public view returns(bool) {\n    //gs1CodeList에 owner가 정상적인지 확인.\n    if (gs1CodeList[gs1Code].index > 0)\n      return true;\n    return false;\n  }\n\n  function isOwner(bytes32 gs1Code) public view returns(bool) {\n    if (gs1CodeList[gs1Code].owner != msg.sender)\n      return false;\n    return true;\n  }\n\n  //owner에게 GS1CodesOfOwner 가 생성되어 있는지 검사함.\n  function isExistGS1CodesOfOwner(address ownerAddress) internal view returns(bool) {\n    //ownerGS1CodeListIndex에서 gs1CodeListOfOwner의 찾고,\n    //gs1CodeListOfOwner의 owner가 동일한지 확인.\n    if (gs1CodeListOfOwner[ownerAddress].owner != ownerAddress)\n      return true;\n    return false;\n  }\n\n  //gs1 code의 상태 변경.\n  function changeGS1CodeState(bytes32 gs1Code, GS1CodeState state)\n  public\n  onlyRoot\n  returns(bool)\n  {\n    require(gs1CodeList[gs1Code].index > 0);\n    if (msg.sender == gs1CodeList[gs1Code].owner\n    || isManager(msg.sender) == true) {\n      gs1CodeList[gs1Code].state = state;\n      return true;\n    }\n    return false;\n  }\n\n  //gs1 code의 상태를 얻어옴.\n  function getGS1CodeState(bytes32 gs1Code)\n  public\n  view\n  returns(GS1CodeState)\n  {\n    require(gs1CodeList[gs1Code].index > 0);\n    return gs1CodeList[gs1Code].state;\n  }\n\n  //gs1 code의 상태를 얻어옴.\n  function getGS1CodeOwner(bytes32 gs1Code)\n  public\n  onlyRoot\n  view\n  returns(address)\n  {\n    require(gs1CodeList[gs1Code].index > 0);\n    return gs1CodeList[gs1Code].owner;\n  }\n\n  //gs1 code의 owner 변경\n  function changeOwnerOfGS1Code(bytes32 gs1Code, address newAddress)\n  public\n  onlyRoot\n  returns(bool)\n  {\n    require(gs1CodeList[gs1Code].index > 0);\n    if (msg.sender == gs1CodeList[gs1Code].owner\n      || isManager(msg.sender) == true) {\n      gs1CodeList[gs1Code].owner = newAddress;\n      return true;\n    }\n    return false;\n  }\n\n  //owner에게 gs1 code를 할당한다.\n  //권한은 mananger에게 줘야 할 것인가??\n  function addGS1Code(bytes32 gs1Code, address ownerAddr)\n  public\n  onlyManager()\n  returns(bool)\n  {\n    //owner가 존재하지 않으면 등록 불가.\n    //owner만이 gs1code만을 등록할 수 있음.\n    if (isExistOwner(ownerAddr) == false)\n      return false;\n\n    //gs1 code가 이미 등록되어 있으면 등록불가\n    if (isExistGS1Code(gs1Code) == true)\n      return false;\n\n    //GS1Code 를 생성하고 gs1CodeList에 추가함.\n    //추가할 때 index를 얻어서 저장해 놓음, 나중에 참조할 때는 -1을 빼야한다.\n    uint256 iterIdx = gs1CodeIterList.push(gs1Code);\n    gs1CodeList[gs1Code] = GS1Code(ownerAddr, gs1Code, GS1CodeState.INACTIVE, iterIdx);\n\n    //GS1CodesOfOwner 변수를 선언/\n    //-> owner의 GS1CodesOfOwner가 없으면 생성할 필요가 있기 때문\n    //GS1CodesOfOwner gs1CodesOfOwner;\n\n    //owner의 GS1CodesOfOwner가 이미 만들어져 있는지 확인\n    if (isExistGS1CodesOfOwner(ownerAddr) == false) {\n      //없다면 새롭게 생성하여 등록함.\n      gs1CodeListOfOwner[ownerAddr] = GS1CodesOfOwner({owner:ownerAddr, gs1CodeList:new bytes32[](0)});\n    }\n\n    //owner의 GS1CodesOfOwner에 gs1 code를 저장함.\n    //소유권이 생긴 것임..\n    gs1CodeListOfOwner[ownerAddr].gs1CodeList.push(gs1Code);\n    //allowedProviderMapForGS1Code[gs1Code].push(msg.sender);\n    return true;\n  }\n\n  //owner에게 할당된 gs1 code를 삭제.\n  //권한은 mananger에게만? 줘야 할 것인가?\n  function removeGS1Code(bytes32 gs1Code, address ownerAddr)\n  public\n  onlyManager()\n  returns(bool)\n  {\n    require(isExistOwner(ownerAddr) == true);\n\n    //gs1 code가 이미 등록되어 있지 않으면 삭제불가\n    if (isExistGS1Code(gs1Code) == false)\n      return false;\n\n    if (gs1CodeList[gs1Code].owner != ownerAddr\n      || gs1CodeList[gs1Code].gs1Code != gs1Code)\n      return false;\n\n    /*\n      array의 item을 삭제할 경우에 실제 array가 줄어드는지 확인이 필요하다.(length 포함)\n    */\n    for (uint i = 0; i < gs1CodeListOfOwner[ownerAddr].gs1CodeList.length; i++) {\n      if (gs1CodeListOfOwner[ownerAddr].gs1CodeList[i] == gs1Code) {\n        delete gs1CodeListOfOwner[ownerAddr].gs1CodeList[i];\n        break;\n      }\n    }\n\n    if (gs1CodeIterList.length > 0 && gs1CodeIterList[gs1CodeList[gs1Code].index-1] == gs1Code)\n      delete gs1CodeIterList[gs1CodeList[gs1Code].index-1];\n\n    delete gs1CodeList[gs1Code];\n    return true;\n  }\n\n  function getGs1CodeList()\n  public\n  view\n  onlyRoot\n  returns(bytes32[])\n  {\n    return gs1CodeIterList;\n  }\n}\n",
  "sourcePath": "/mnt/c/projects/ons/ons-on-ethereum/src/contracts/ONSGS1Code.sol",
  "compiler": {
    "name": "solc",
    "version": "0.4.19+commit.c4cbbb05.Emscripten.clang"
  },
  "schemaVersion": "2.0.0",
  "updatedAt": "2018-04-15T15:39:31.244Z"
}