{
  "contractName": "ONSManager",
  "abi": [
    {
      "constant": true,
      "inputs": [
        {
          "name": "",
          "type": "address"
        }
      ],
      "name": "owners",
      "outputs": [
        {
          "name": "",
          "type": "uint256"
        }
      ],
      "payable": false,
      "stateMutability": "view",
      "type": "function"
    },
    {
      "constant": true,
      "inputs": [],
      "name": "managerAddress",
      "outputs": [
        {
          "name": "",
          "type": "address"
        }
      ],
      "payable": false,
      "stateMutability": "view",
      "type": "function"
    },
    {
      "inputs": [],
      "payable": false,
      "stateMutability": "nonpayable",
      "type": "constructor"
    },
    {
      "constant": true,
      "inputs": [
        {
          "name": "addr",
          "type": "address"
        }
      ],
      "name": "isManager",
      "outputs": [
        {
          "name": "",
          "type": "bool"
        }
      ],
      "payable": false,
      "stateMutability": "view",
      "type": "function"
    },
    {
      "constant": false,
      "inputs": [
        {
          "name": "_newManager",
          "type": "address"
        }
      ],
      "name": "setManager",
      "outputs": [],
      "payable": false,
      "stateMutability": "nonpayable",
      "type": "function"
    },
    {
      "constant": true,
      "inputs": [],
      "name": "getManager",
      "outputs": [
        {
          "name": "",
          "type": "address"
        }
      ],
      "payable": false,
      "stateMutability": "view",
      "type": "function"
    },
    {
      "constant": false,
      "inputs": [
        {
          "name": "ownerAddress",
          "type": "address"
        }
      ],
      "name": "addOwner",
      "outputs": [
        {
          "name": "",
          "type": "bool"
        }
      ],
      "payable": false,
      "stateMutability": "nonpayable",
      "type": "function"
    },
    {
      "constant": false,
      "inputs": [
        {
          "name": "ownerAddress",
          "type": "address"
        }
      ],
      "name": "removeOwner",
      "outputs": [],
      "payable": false,
      "stateMutability": "nonpayable",
      "type": "function"
    },
    {
      "constant": true,
      "inputs": [
        {
          "name": "ownerAddress",
          "type": "address"
        }
      ],
      "name": "isExistOwner",
      "outputs": [
        {
          "name": "",
          "type": "bool"
        }
      ],
      "payable": false,
      "stateMutability": "view",
      "type": "function"
    },
    {
      "constant": true,
      "inputs": [],
      "name": "getOwnerList",
      "outputs": [
        {
          "name": "",
          "type": "address[]"
        }
      ],
      "payable": false,
      "stateMutability": "view",
      "type": "function"
    }
  ],
  "bytecode": "0x60606040526000600355341561001457600080fd5b336000806101000a81548173ffffffffffffffffffffffffffffffffffffffff021916908373ffffffffffffffffffffffffffffffffffffffff1602179055506002805480600101828161006891906100bc565b9160005260206000209001600033909190916101000a81548173ffffffffffffffffffffffffffffffffffffffff021916908373ffffffffffffffffffffffffffffffffffffffff1602179055505061010d565b8154818355818115116100e3578183600052602060002091820191016100e291906100e8565b5b505050565b61010a91905b808211156101065760008160009055506001016100ee565b5090565b90565b610a1d8061011c6000396000f300606060405260043610610099576000357c0100000000000000000000000000000000000000000000000000000000900463ffffffff168063022914a71461009e578063173825d9146100eb57806358100370146101245780637065cb481461018e578063ac0a1ecb146101df578063cf73a1bc14610230578063d0ebdbe714610285578063d5009584146102be578063f3ae241514610313575b600080fd5b34156100a957600080fd5b6100d5600480803573ffffffffffffffffffffffffffffffffffffffff16906020019091905050610364565b6040518082815260200191505060405180910390f35b34156100f657600080fd5b610122600480803573ffffffffffffffffffffffffffffffffffffffff1690602001909190505061037c565b005b341561012f57600080fd5b6101376104f0565b6040518080602001828103825283818151815260200191508051906020019060200280838360005b8381101561017a57808201518184015260208101905061015f565b505050509050019250505060405180910390f35b341561019957600080fd5b6101c5600480803573ffffffffffffffffffffffffffffffffffffffff16906020019091905050610584565b604051808215151515815260200191505060405180910390f35b34156101ea57600080fd5b610216600480803573ffffffffffffffffffffffffffffffffffffffff1690602001909190505061079e565b604051808215151515815260200191505060405180910390f35b341561023b57600080fd5b6102436107fa565b604051808273ffffffffffffffffffffffffffffffffffffffff1673ffffffffffffffffffffffffffffffffffffffff16815260200191505060405180910390f35b341561029057600080fd5b6102bc600480803573ffffffffffffffffffffffffffffffffffffffff1690602001909190505061081f565b005b34156102c957600080fd5b6102d16108f9565b604051808273ffffffffffffffffffffffffffffffffffffffff1673ffffffffffffffffffffffffffffffffffffffff16815260200191505060405180910390f35b341561031e57600080fd5b61034a600480803573ffffffffffffffffffffffffffffffffffffffff16906020019091905050610922565b604051808215151515815260200191505060405180910390f35b60016020528060005260406000206000915090505481565b6000809054906101000a900473ffffffffffffffffffffffffffffffffffffffff1673ffffffffffffffffffffffffffffffffffffffff163373ffffffffffffffffffffffffffffffffffffffff161415156103d757600080fd5b6000600160008373ffffffffffffffffffffffffffffffffffffffff1673ffffffffffffffffffffffffffffffffffffffff1681526020019081526020016000205411151561042557600080fd5b600160008273ffffffffffffffffffffffffffffffffffffffff1673ffffffffffffffffffffffffffffffffffffffff16815260200190815260200160002054600381905550600260035481548110151561047c57fe5b906000526020600020900160006101000a81549073ffffffffffffffffffffffffffffffffffffffff0219169055600160008273ffffffffffffffffffffffffffffffffffffffff1673ffffffffffffffffffffffffffffffffffffffff1681526020019081526020016000206000905550565b6104f861098c565b600280548060200260200160405190810160405280929190818152602001828054801561057a57602002820191906000526020600020905b8160009054906101000a900473ffffffffffffffffffffffffffffffffffffffff1673ffffffffffffffffffffffffffffffffffffffff1681526020019060010190808311610530575b5050505050905090565b60008060009054906101000a900473ffffffffffffffffffffffffffffffffffffffff1673ffffffffffffffffffffffffffffffffffffffff163373ffffffffffffffffffffffffffffffffffffffff161415156105e157600080fd5b6000600160008473ffffffffffffffffffffffffffffffffffffffff1673ffffffffffffffffffffffffffffffffffffffff1681526020019081526020016000205411156106325760009050610799565b600060035411156106eb5781600260035481548110151561064f57fe5b906000526020600020900160006101000a81548173ffffffffffffffffffffffffffffffffffffffff021916908373ffffffffffffffffffffffffffffffffffffffff160217905550600354600160008473ffffffffffffffffffffffffffffffffffffffff1673ffffffffffffffffffffffffffffffffffffffff168152602001908152602001600020819055506000600381905550610794565b60016002805480600101828161070191906109a0565b9160005260206000209001600085909190916101000a81548173ffffffffffffffffffffffffffffffffffffffff021916908373ffffffffffffffffffffffffffffffffffffffff16021790555003600160008473ffffffffffffffffffffffffffffffffffffffff1673ffffffffffffffffffffffffffffffffffffffff168152602001908152602001600020819055505b600190505b919050565b600080600160008473ffffffffffffffffffffffffffffffffffffffff1673ffffffffffffffffffffffffffffffffffffffff1681526020019081526020016000205411156107f057600190506107f5565b600090505b919050565b6000809054906101000a900473ffffffffffffffffffffffffffffffffffffffff1681565b6000809054906101000a900473ffffffffffffffffffffffffffffffffffffffff1673ffffffffffffffffffffffffffffffffffffffff163373ffffffffffffffffffffffffffffffffffffffff1614151561087a57600080fd5b600073ffffffffffffffffffffffffffffffffffffffff168173ffffffffffffffffffffffffffffffffffffffff16141515156108b657600080fd5b806000806101000a81548173ffffffffffffffffffffffffffffffffffffffff021916908373ffffffffffffffffffffffffffffffffffffffff16021790555050565b60008060009054906101000a900473ffffffffffffffffffffffffffffffffffffffff16905090565b60008060009054906101000a900473ffffffffffffffffffffffffffffffffffffffff1673ffffffffffffffffffffffffffffffffffffffff168273ffffffffffffffffffffffffffffffffffffffff1614156109825760019050610987565b600090505b919050565b602060405190810160405280600081525090565b8154818355818115116109c7578183600052602060002091820191016109c691906109cc565b5b505050565b6109ee91905b808211156109ea5760008160009055506001016109d2565b5090565b905600a165627a7a723058208dad7c2055e9563e754e4f6d3aa1362f36f5931b2987345d635a37f9e72d9c1a0029",
  "source": "pragma solidity ^0.4.18;\n\n/// @title The ONSAccessControl that manages access privileges to transaction.\n/// @author dalu\ncontract ONSManager {\n\n  /*\n    manager : has a role that registers a user on the whitelist that is a list of user's addresses who can trade.\n  */\n\n  address public managerAddress;\n  //owner allow user to add ons records for gs1 code.\n  mapping(address => uint256) public owners;\n  address[] ownerList;\n  uint256 lastUnusedIndex = 0;\n\n  function ONSManager() public {\n    // constructor\n    managerAddress = msg.sender;\n\n    //owners mapping array's value should start from index 1;\n    ownerList.push(msg.sender);\n  }\n\n  modifier onlyManager() {\n    require(msg.sender == managerAddress);\n    _;\n  }\n\n  function isManager(address addr) public view returns(bool) {\n    if (addr == managerAddress)\n      return true;\n    return false;\n  }\n\n  modifier onlyRoot() {\n    require(msg.sender == managerAddress || owners[msg.sender] > 0 );\n    _;\n  }\n\n  function setManager(address _newManager) public onlyManager {\n    require(_newManager != address(0));\n    managerAddress = _newManager;\n  }\n\n  function getManager() public view returns(address) {\n    return managerAddress;\n  }\n\n  function addOwner(address ownerAddress) public onlyManager returns(bool) {\n    if (owners[ownerAddress] > 0)\n      return false;\n\n    if (lastUnusedIndex > 0) {\n      ownerList[lastUnusedIndex] = ownerAddress;\n      owners[ownerAddress] = lastUnusedIndex;\n      lastUnusedIndex = 0;\n    }else\n      owners[ownerAddress] = ownerList.push(ownerAddress)-1;\n\n    return true;\n  }\n\n  function removeOwner(address ownerAddress) public onlyManager{\n    require(owners[ownerAddress] > 0);\n    lastUnusedIndex = owners[ownerAddress];\n    delete ownerList[lastUnusedIndex];\n    delete owners[ownerAddress];\n  }\n\n  modifier onlyExistOwner(address ownerAddress) {\n    require(owners[ownerAddress] > 0);\n    _;\n  }\n\n  function isExistOwner(address ownerAddress) public view returns(bool) {\n    if (owners[ownerAddress] > 0)\n      return true;\n    return false;\n  }\n\n  function getOwnerList() public view returns(address[]) {\n    return ownerList;\n  }\n}\n",
  "sourcePath": "/mnt/c/projects/ons/ons-on-ethereum/src/contracts/ONSManager.sol",
  "compiler": {
    "name": "solc",
    "version": "0.4.19+commit.c4cbbb05.Emscripten.clang"
  },
  "schemaVersion": "2.0.0",
  "updatedAt": "2018-04-15T15:39:31.229Z"
}