{
  "contractName": "ONSRecord",
  "abi": [
    {
      "constant": true,
      "inputs": [
        {
          "name": "",
          "type": "address"
        }
      ],
      "name": "owners",
      "outputs": [
        {
          "name": "",
          "type": "uint256"
        }
      ],
      "payable": false,
      "stateMutability": "view",
      "type": "function"
    },
    {
      "constant": true,
      "inputs": [
        {
          "name": "gs1Code",
          "type": "bytes32"
        }
      ],
      "name": "isExistGS1Code",
      "outputs": [
        {
          "name": "",
          "type": "bool"
        }
      ],
      "payable": false,
      "stateMutability": "view",
      "type": "function"
    },
    {
      "constant": false,
      "inputs": [
        {
          "name": "ownerAddress",
          "type": "address"
        }
      ],
      "name": "removeOwner",
      "outputs": [],
      "payable": false,
      "stateMutability": "nonpayable",
      "type": "function"
    },
    {
      "constant": false,
      "inputs": [
        {
          "name": "gs1Code",
          "type": "bytes32"
        },
        {
          "name": "ownerAddr",
          "type": "address"
        }
      ],
      "name": "removeGS1Code",
      "outputs": [
        {
          "name": "",
          "type": "bool"
        }
      ],
      "payable": false,
      "stateMutability": "nonpayable",
      "type": "function"
    },
    {
      "constant": true,
      "inputs": [],
      "name": "getGs1CodeList",
      "outputs": [
        {
          "name": "",
          "type": "bytes32[]"
        }
      ],
      "payable": false,
      "stateMutability": "view",
      "type": "function"
    },
    {
      "constant": true,
      "inputs": [],
      "name": "getOwnerList",
      "outputs": [
        {
          "name": "",
          "type": "address[]"
        }
      ],
      "payable": false,
      "stateMutability": "view",
      "type": "function"
    },
    {
      "constant": false,
      "inputs": [
        {
          "name": "gs1Code",
          "type": "bytes32"
        },
        {
          "name": "newAddress",
          "type": "address"
        }
      ],
      "name": "changeOwnerOfGS1Code",
      "outputs": [
        {
          "name": "",
          "type": "bool"
        }
      ],
      "payable": false,
      "stateMutability": "nonpayable",
      "type": "function"
    },
    {
      "constant": false,
      "inputs": [
        {
          "name": "gs1Code",
          "type": "bytes32"
        },
        {
          "name": "state",
          "type": "uint8"
        }
      ],
      "name": "changeGS1CodeState",
      "outputs": [
        {
          "name": "",
          "type": "bool"
        }
      ],
      "payable": false,
      "stateMutability": "nonpayable",
      "type": "function"
    },
    {
      "constant": true,
      "inputs": [
        {
          "name": "gs1Code",
          "type": "bytes32"
        }
      ],
      "name": "getGS1CodeState",
      "outputs": [
        {
          "name": "",
          "type": "uint8"
        }
      ],
      "payable": false,
      "stateMutability": "view",
      "type": "function"
    },
    {
      "constant": false,
      "inputs": [
        {
          "name": "ownerAddress",
          "type": "address"
        }
      ],
      "name": "addOwner",
      "outputs": [
        {
          "name": "",
          "type": "bool"
        }
      ],
      "payable": false,
      "stateMutability": "nonpayable",
      "type": "function"
    },
    {
      "constant": true,
      "inputs": [
        {
          "name": "ownerAddress",
          "type": "address"
        }
      ],
      "name": "isExistOwner",
      "outputs": [
        {
          "name": "",
          "type": "bool"
        }
      ],
      "payable": false,
      "stateMutability": "view",
      "type": "function"
    },
    {
      "constant": true,
      "inputs": [
        {
          "name": "gs1Code",
          "type": "bytes32"
        }
      ],
      "name": "getGS1CodeOwner",
      "outputs": [
        {
          "name": "",
          "type": "address"
        }
      ],
      "payable": false,
      "stateMutability": "view",
      "type": "function"
    },
    {
      "constant": true,
      "inputs": [],
      "name": "managerAddress",
      "outputs": [
        {
          "name": "",
          "type": "address"
        }
      ],
      "payable": false,
      "stateMutability": "view",
      "type": "function"
    },
    {
      "constant": false,
      "inputs": [
        {
          "name": "_newManager",
          "type": "address"
        }
      ],
      "name": "setManager",
      "outputs": [],
      "payable": false,
      "stateMutability": "nonpayable",
      "type": "function"
    },
    {
      "constant": true,
      "inputs": [],
      "name": "getManager",
      "outputs": [
        {
          "name": "",
          "type": "address"
        }
      ],
      "payable": false,
      "stateMutability": "view",
      "type": "function"
    },
    {
      "constant": false,
      "inputs": [
        {
          "name": "gs1Code",
          "type": "bytes32"
        },
        {
          "name": "ownerAddr",
          "type": "address"
        }
      ],
      "name": "addGS1Code",
      "outputs": [
        {
          "name": "",
          "type": "bool"
        }
      ],
      "payable": false,
      "stateMutability": "nonpayable",
      "type": "function"
    },
    {
      "constant": true,
      "inputs": [
        {
          "name": "gs1Code",
          "type": "bytes32"
        }
      ],
      "name": "isOwner",
      "outputs": [
        {
          "name": "",
          "type": "bool"
        }
      ],
      "payable": false,
      "stateMutability": "view",
      "type": "function"
    },
    {
      "constant": true,
      "inputs": [
        {
          "name": "addr",
          "type": "address"
        }
      ],
      "name": "isManager",
      "outputs": [
        {
          "name": "",
          "type": "bool"
        }
      ],
      "payable": false,
      "stateMutability": "view",
      "type": "function"
    },
    {
      "inputs": [],
      "payable": false,
      "stateMutability": "nonpayable",
      "type": "constructor"
    },
    {
      "constant": true,
      "inputs": [
        {
          "name": "gs1Code",
          "type": "bytes32"
        }
      ],
      "name": "isExistONSCoreDataByGS1Code",
      "outputs": [
        {
          "name": "",
          "type": "bool"
        }
      ],
      "payable": false,
      "stateMutability": "view",
      "type": "function"
    },
    {
      "constant": false,
      "inputs": [
        {
          "name": "gs1Code",
          "type": "bytes32"
        },
        {
          "name": "providerAddress",
          "type": "address"
        }
      ],
      "name": "registerAllowedProvider",
      "outputs": [
        {
          "name": "",
          "type": "bool"
        }
      ],
      "payable": false,
      "stateMutability": "nonpayable",
      "type": "function"
    },
    {
      "constant": false,
      "inputs": [
        {
          "name": "gs1Code",
          "type": "bytes32"
        },
        {
          "name": "deletedProviderAddress",
          "type": "address"
        }
      ],
      "name": "deregisterAllowedProvider",
      "outputs": [
        {
          "name": "",
          "type": "bool"
        }
      ],
      "payable": false,
      "stateMutability": "nonpayable",
      "type": "function"
    },
    {
      "constant": true,
      "inputs": [
        {
          "name": "gs1Code",
          "type": "bytes32"
        }
      ],
      "name": "getAllowedProviders",
      "outputs": [
        {
          "name": "",
          "type": "address[]"
        }
      ],
      "payable": false,
      "stateMutability": "view",
      "type": "function"
    },
    {
      "constant": true,
      "inputs": [
        {
          "name": "gs1Code",
          "type": "bytes32"
        },
        {
          "name": "providerAddr",
          "type": "address"
        }
      ],
      "name": "isAllowedProvider",
      "outputs": [
        {
          "name": "",
          "type": "bool"
        }
      ],
      "payable": false,
      "stateMutability": "view",
      "type": "function"
    },
    {
      "constant": false,
      "inputs": [
        {
          "name": "gs1Code",
          "type": "bytes32"
        },
        {
          "name": "flags",
          "type": "uint8"
        },
        {
          "name": "service",
          "type": "string"
        },
        {
          "name": "regexp",
          "type": "string"
        }
      ],
      "name": "addRecord",
      "outputs": [
        {
          "name": "",
          "type": "bool"
        }
      ],
      "payable": false,
      "stateMutability": "nonpayable",
      "type": "function"
    },
    {
      "constant": false,
      "inputs": [
        {
          "name": "gs1Code",
          "type": "bytes32"
        },
        {
          "name": "recordId",
          "type": "uint8"
        }
      ],
      "name": "removeRecord",
      "outputs": [
        {
          "name": "",
          "type": "bool"
        }
      ],
      "payable": false,
      "stateMutability": "nonpayable",
      "type": "function"
    },
    {
      "constant": true,
      "inputs": [
        {
          "name": "gs1Code",
          "type": "bytes32"
        }
      ],
      "name": "getRecordCount",
      "outputs": [
        {
          "name": "",
          "type": "uint256"
        }
      ],
      "payable": false,
      "stateMutability": "view",
      "type": "function"
    },
    {
      "constant": true,
      "inputs": [
        {
          "name": "gs1Code",
          "type": "bytes32"
        },
        {
          "name": "recordId",
          "type": "uint256"
        }
      ],
      "name": "getRecord",
      "outputs": [
        {
          "components": [
            {
              "name": "flags",
              "type": "uint8"
            },
            {
              "name": "service",
              "type": "string"
            },
            {
              "name": "regexp",
              "type": "string"
            }
          ],
          "name": "",
          "type": "tuple"
        }
      ],
      "payable": false,
      "stateMutability": "view",
      "type": "function"
    },
    {
      "constant": true,
      "inputs": [
        {
          "name": "gs1Code",
          "type": "bytes32"
        },
        {
          "name": "recordId",
          "type": "uint256"
        }
      ],
      "name": "getRecord2",
      "outputs": [
        {
          "name": "",
          "type": "uint8"
        },
        {
          "name": "",
          "type": "string"
        },
        {
          "name": "",
          "type": "string"
        }
      ],
      "payable": false,
      "stateMutability": "view",
      "type": "function"
    }
  ],
  "bytecode": "0x6060604052600060035534156200001557600080fd5b336000806101000a81548173ffffffffffffffffffffffffffffffffffffffff021916908373ffffffffffffffffffffffffffffffffffffffff160217905550600280548060010182816200006b9190620000c0565b9160005260206000209001600033909190916101000a81548173ffffffffffffffffffffffffffffffffffffffff021916908373ffffffffffffffffffffffffffffffffffffffff1602179055505062000117565b815481835581811511620000ea57818360005260206000209182019101620000e99190620000ef565b5b505050565b6200011491905b8082111562000110576000816000905550600101620000f6565b5090565b90565b6130a780620001276000396000f30060606040526004361061016a576000357c0100000000000000000000000000000000000000000000000000000000900463ffffffff168063022914a71461016f57806303907062146101bc5780630ce06a1a1461020757806315355d1a14610246578063173825d9146102a457806318a91b3c146102dd57806339adbccf1461033b57806347efab21146103995780634b2a84db146104035780634d9083f4146104d457806358100370146105505780635e92058a146105ba5780636056e26e146106185780636741f2c6146106635780637065cb48146106ac578063a0ec9e77146106fd578063ac0a1ecb1461073c578063be8a640f1461078d578063c9a83cfd146107f4578063cf73a1bc14610852578063d0ebdbe7146108a7578063d5009584146108e0578063df84a59214610935578063ee43f47614610970578063eeac39d8146109ce578063f24d954e14610a0d578063f3ae241514610a51578063f4d3135014610aa2575b600080fd5b341561017a57600080fd5b6101a6600480803573ffffffffffffffffffffffffffffffffffffffff16906020019091905050610bc4565b6040518082815260200191505060405180910390f35b34156101c757600080fd5b6101ed60048080356000191690602001909190803560ff16906020019091905050610bdc565b604051808215151515815260200191505060405180910390f35b341561021257600080fd5b61022c600480803560001916906020019091905050610cc2565b604051808215151515815260200191505060405180910390f35b341561025157600080fd5b61028a60048080356000191690602001909190803573ffffffffffffffffffffffffffffffffffffffff16906020019091905050610cfd565b604051808215151515815260200191505060405180910390f35b34156102af57600080fd5b6102db600480803573ffffffffffffffffffffffffffffffffffffffff16906020019091905050610e6a565b005b34156102e857600080fd5b61032160048080356000191690602001909190803573ffffffffffffffffffffffffffffffffffffffff16906020019091905050610fde565b604051808215151515815260200191505060405180910390f35b341561034657600080fd5b61037f60048080356000191690602001909190803573ffffffffffffffffffffffffffffffffffffffff169060200190919050506111e5565b604051808215151515815260200191505060405180910390f35b34156103a457600080fd5b6103ac611566565b6040518080602001828103825283818151815260200191508051906020019060200280838360005b838110156103ef5780820151818401526020810190506103d4565b505050509050019250505060405180910390f35b341561040e57600080fd5b6104ba60048080356000191690602001909190803560ff1690602001909190803590602001908201803590602001908080601f0160208091040260200160405190810160405280939291908181526020018383808284378201915050505050509190803590602001908201803590602001908080601f0160208091040260200160405190810160405280939291908181526020018383808284378201915050505050509190505061166d565b604051808215151515815260200191505060405180910390f35b34156104df57600080fd5b6104f9600480803560001916906020019091905050611834565b6040518080602001828103825283818151815260200191508051906020019060200280838360005b8381101561053c578082015181840152602081019050610521565b505050509050019250505060405180910390f35b341561055b57600080fd5b610563611910565b6040518080602001828103825283818151815260200191508051906020019060200280838360005b838110156105a657808201518184015260208101905061058b565b505050509050019250505060405180910390f35b34156105c557600080fd5b6105fe60048080356000191690602001909190803573ffffffffffffffffffffffffffffffffffffffff169060200190919050506119a4565b604051808215151515815260200191505060405180910390f35b341561062357600080fd5b61064960048080356000191690602001909190803560ff16906020019091905050611b72565b604051808215151515815260200191505060405180910390f35b341561066e57600080fd5b610688600480803560001916906020019091905050611d22565b6040518082600281111561069857fe5b60ff16815260200191505060405180910390f35b34156106b757600080fd5b6106e3600480803573ffffffffffffffffffffffffffffffffffffffff16906020019091905050611d83565b604051808215151515815260200191505060405180910390f35b341561070857600080fd5b610722600480803560001916906020019091905050611f9d565b604051808215151515815260200191505060405180910390f35b341561074757600080fd5b610773600480803573ffffffffffffffffffffffffffffffffffffffff16906020019091905050611fe0565b604051808215151515815260200191505060405180910390f35b341561079857600080fd5b6107b260048080356000191690602001909190505061203c565b604051808273ffffffffffffffffffffffffffffffffffffffff1673ffffffffffffffffffffffffffffffffffffffff16815260200191505060405180910390f35b34156107ff57600080fd5b61083860048080356000191690602001909190803573ffffffffffffffffffffffffffffffffffffffff16906020019091905050612156565b604051808215151515815260200191505060405180910390f35b341561085d57600080fd5b610865612258565b604051808273ffffffffffffffffffffffffffffffffffffffff1673ffffffffffffffffffffffffffffffffffffffff16815260200191505060405180910390f35b34156108b257600080fd5b6108de600480803573ffffffffffffffffffffffffffffffffffffffff1690602001909190505061227d565b005b34156108eb57600080fd5b6108f3612357565b604051808273ffffffffffffffffffffffffffffffffffffffff1673ffffffffffffffffffffffffffffffffffffffff16815260200191505060405180910390f35b341561094057600080fd5b61095a600480803560001916906020019091905050612380565b6040518082815260200191505060405180910390f35b341561097b57600080fd5b6109b460048080356000191690602001909190803573ffffffffffffffffffffffffffffffffffffffff169060200190919050506123d4565b604051808215151515815260200191505060405180910390f35b34156109d957600080fd5b6109f360048080356000191690602001909190505061270f565b604051808215151515815260200191505060405180910390f35b3415610a1857600080fd5b610a3b600480803560001916906020019091908035906020019091905050612797565b6040518082815260200191505060405180910390f35b3415610a5c57600080fd5b610a88600480803573ffffffffffffffffffffffffffffffffffffffff16906020019091905050612a16565b604051808215151515815260200191505060405180910390f35b3415610aad57600080fd5b610ad0600480803560001916906020019091908035906020019091905050612a80565b604051808460ff1660ff1681526020018060200180602001838103835285818151815260200191508051906020019080838360005b83811015610b20578082015181840152602081019050610b05565b50505050905090810190601f168015610b4d5780820380516001836020036101000a031916815260200191505b50838103825284818151815260200191508051906020019080838360005b83811015610b86578082015181840152602081019050610b6b565b50505050905090810190601f168015610bb35780820380516001836020036101000a031916815260200191505b509550505050505060405180910390f35b60016020528060005260406000206000915090505481565b6000808260ff1610151515610bf057600080fd5b8160ff1660076000856000191660001916815260200190815260200160002080549050111515610c1f57600080fd5b610c298333612156565b1515610c3457600080fd5b6007600084600019166000191681526020019081526020016000208260ff16815481101515610c5f57fe5b9060005260206000209060040201600080820160006101000a81549060ff0219169055600182016000610c929190612da4565b600282016000610ca29190612da4565b6003820160006101000a81549060ff021916905550506001905092915050565b600080600460008460001916600019168152602001908152602001600020600301541115610cf35760019050610cf8565b600090505b919050565b6000336000600160008373ffffffffffffffffffffffffffffffffffffffff1673ffffffffffffffffffffffffffffffffffffffff16815260200190815260200160002054111515610d4e57600080fd5b833373ffffffffffffffffffffffffffffffffffffffff1660046000836000191660001916815260200190815260200160002060000160009054906101000a900473ffffffffffffffffffffffffffffffffffffffff1673ffffffffffffffffffffffffffffffffffffffff16141515610dc757600080fd5b60011515610dd433611fe0565b1515141515610de257600080fd5b6009600086600019166000191681526020019081526020016000208054806001018281610e0f9190612dec565b9160005260206000209001600086909190916101000a81548173ffffffffffffffffffffffffffffffffffffffff021916908373ffffffffffffffffffffffffffffffffffffffff1602179055505060019250505092915050565b6000809054906101000a900473ffffffffffffffffffffffffffffffffffffffff1673ffffffffffffffffffffffffffffffffffffffff163373ffffffffffffffffffffffffffffffffffffffff16141515610ec557600080fd5b6000600160008373ffffffffffffffffffffffffffffffffffffffff1673ffffffffffffffffffffffffffffffffffffffff16815260200190815260200160002054111515610f1357600080fd5b600160008273ffffffffffffffffffffffffffffffffffffffff1673ffffffffffffffffffffffffffffffffffffffff168152602001908152602001600020546003819055506002600354815481101515610f6a57fe5b906000526020600020900160006101000a81549073ffffffffffffffffffffffffffffffffffffffff0219169055600160008273ffffffffffffffffffffffffffffffffffffffff1673ffffffffffffffffffffffffffffffffffffffff1681526020019081526020016000206000905550565b600080336000600160008373ffffffffffffffffffffffffffffffffffffffff1673ffffffffffffffffffffffffffffffffffffffff1681526020019081526020016000205411151561103057600080fd5b843373ffffffffffffffffffffffffffffffffffffffff1660046000836000191660001916815260200190815260200160002060000160009054906101000a900473ffffffffffffffffffffffffffffffffffffffff1673ffffffffffffffffffffffffffffffffffffffff161415156110a957600080fd5b600115156110b633611fe0565b15151415156110c457600080fd5b600092505b600960008760001916600019168152602001908152602001600020805490508310156111d8578473ffffffffffffffffffffffffffffffffffffffff166009600088600019166000191681526020019081526020016000208481548110151561112e57fe5b906000526020600020900160009054906101000a900473ffffffffffffffffffffffffffffffffffffffff1673ffffffffffffffffffffffffffffffffffffffff1614156111cd576009600087600019166000191681526020019081526020016000208381548110151561119e57fe5b906000526020600020900160006101000a81549073ffffffffffffffffffffffffffffffffffffffff02191690555b8260010192506110c9565b6001935050505092915050565b6000806000809054906101000a900473ffffffffffffffffffffffffffffffffffffffff1673ffffffffffffffffffffffffffffffffffffffff163373ffffffffffffffffffffffffffffffffffffffff1614151561124357600080fd5b6001151561125084611fe0565b151514151561125e57600080fd5b6000151561126b85610cc2565b1515141561127c576000915061155f565b8273ffffffffffffffffffffffffffffffffffffffff1660046000866000191660001916815260200190815260200160002060000160009054906101000a900473ffffffffffffffffffffffffffffffffffffffff1673ffffffffffffffffffffffffffffffffffffffff1614158061131b57508360001916600460008660001916600019168152602001908152602001600020600101546000191614155b15611329576000915061155f565b600090505b600660008473ffffffffffffffffffffffffffffffffffffffff1673ffffffffffffffffffffffffffffffffffffffff16815260200190815260200160002060010180549050811015611455578360001916600660008573ffffffffffffffffffffffffffffffffffffffff1673ffffffffffffffffffffffffffffffffffffffff168152602001908152602001600020600101828154811015156113cf57fe5b90600052602060002090015460001916141561144857600660008473ffffffffffffffffffffffffffffffffffffffff1673ffffffffffffffffffffffffffffffffffffffff1681526020019081526020016000206001018181548110151561143457fe5b906000526020600020900160009055611455565b808060010191505061132e565b60006005805490501180156114ac5750836000191660056001600460008860001916600019168152602001908152602001600020600301540381548110151561149a57fe5b90600052602060002090015460001916145b156114f1576005600160046000876000191660001916815260200190815260200160002060030154038154811015156114e157fe5b9060005260206000209001600090555b600460008560001916600019168152602001908152602001600020600080820160006101000a81549073ffffffffffffffffffffffffffffffffffffffff021916905560018201600090556002820160006101000a81549060ff021916905560038201600090555050600191505b5092915050565b61156e612e18565b6000809054906101000a900473ffffffffffffffffffffffffffffffffffffffff1673ffffffffffffffffffffffffffffffffffffffff163373ffffffffffffffffffffffffffffffffffffffff16148061160857506000600160003373ffffffffffffffffffffffffffffffffffffffff1673ffffffffffffffffffffffffffffffffffffffff16815260200190815260200160002054115b151561161357600080fd5b600580548060200260200160405190810160405280929190818152602001828054801561166357602002820191906000526020600020905b8154600019168152602001906001019080831161164b575b5050505050905090565b60006116798533612156565b151561168457600080fd5b6000151561169186611f9d565b1515141561173e5760408051908101604052803373ffffffffffffffffffffffffffffffffffffffff168152602001866000191681525060086000876000191660001916815260200190815260200160002060008201518160000160006101000a81548173ffffffffffffffffffffffffffffffffffffffff021916908373ffffffffffffffffffffffffffffffffffffffff160217905550602082015181600101906000191690559050505b600760008660001916600019168152602001908152602001600020805480600101828161176b9190612e2c565b916000526020600020906004020160006080604051908101604052808860ff168152602001878152602001868152602001600060ff16815250909190915060008201518160000160006101000a81548160ff021916908360ff16021790555060208201518160010190805190602001906117e6929190612e5e565b506040820151816002019080519060200190611803929190612e5e565b5060608201518160030160006101000a81548160ff021916908360ff16021790555050505060019050949350505050565b61183c612ede565b60006004600084600019166000191681526020019081526020016000206003015411151561186957600080fd5b60096000836000191660001916815260200190815260200160002080548060200260200160405190810160405280929190818152602001828054801561190457602002820191906000526020600020905b8160009054906101000a900473ffffffffffffffffffffffffffffffffffffffff1673ffffffffffffffffffffffffffffffffffffffff16815260200190600101908083116118ba575b50505050509050919050565b611918612ede565b600280548060200260200160405190810160405280929190818152602001828054801561199a57602002820191906000526020600020905b8160009054906101000a900473ffffffffffffffffffffffffffffffffffffffff1673ffffffffffffffffffffffffffffffffffffffff1681526020019060010190808311611950575b5050505050905090565b60008060009054906101000a900473ffffffffffffffffffffffffffffffffffffffff1673ffffffffffffffffffffffffffffffffffffffff163373ffffffffffffffffffffffffffffffffffffffff161480611a4057506000600160003373ffffffffffffffffffffffffffffffffffffffff1673ffffffffffffffffffffffffffffffffffffffff16815260200190815260200160002054115b1515611a4b57600080fd5b600060046000856000191660001916815260200190815260200160002060030154111515611a7857600080fd5b60046000846000191660001916815260200190815260200160002060000160009054906101000a900473ffffffffffffffffffffffffffffffffffffffff1673ffffffffffffffffffffffffffffffffffffffff163373ffffffffffffffffffffffffffffffffffffffff161480611afc575060011515611af833612a16565b1515145b15611b67578160046000856000191660001916815260200190815260200160002060000160006101000a81548173ffffffffffffffffffffffffffffffffffffffff021916908373ffffffffffffffffffffffffffffffffffffffff16021790555060019050611b6c565b600090505b92915050565b60008060009054906101000a900473ffffffffffffffffffffffffffffffffffffffff1673ffffffffffffffffffffffffffffffffffffffff163373ffffffffffffffffffffffffffffffffffffffff161480611c0e57506000600160003373ffffffffffffffffffffffffffffffffffffffff1673ffffffffffffffffffffffffffffffffffffffff16815260200190815260200160002054115b1515611c1957600080fd5b600060046000856000191660001916815260200190815260200160002060030154111515611c4657600080fd5b60046000846000191660001916815260200190815260200160002060000160009054906101000a900473ffffffffffffffffffffffffffffffffffffffff1673ffffffffffffffffffffffffffffffffffffffff163373ffffffffffffffffffffffffffffffffffffffff161480611cca575060011515611cc633612a16565b1515145b15611d17578160046000856000191660001916815260200190815260200160002060020160006101000a81548160ff02191690836002811115611d0957fe5b021790555060019050611d1c565b600090505b92915050565b60008060046000846000191660001916815260200190815260200160002060030154111515611d5057600080fd5b60046000836000191660001916815260200190815260200160002060020160009054906101000a900460ff169050919050565b60008060009054906101000a900473ffffffffffffffffffffffffffffffffffffffff1673ffffffffffffffffffffffffffffffffffffffff163373ffffffffffffffffffffffffffffffffffffffff16141515611de057600080fd5b6000600160008473ffffffffffffffffffffffffffffffffffffffff1673ffffffffffffffffffffffffffffffffffffffff168152602001908152602001600020541115611e315760009050611f98565b60006003541115611eea57816002600354815481101515611e4e57fe5b906000526020600020900160006101000a81548173ffffffffffffffffffffffffffffffffffffffff021916908373ffffffffffffffffffffffffffffffffffffffff160217905550600354600160008473ffffffffffffffffffffffffffffffffffffffff1673ffffffffffffffffffffffffffffffffffffffff168152602001908152602001600020819055506000600381905550611f93565b600160028054806001018281611f009190612dec565b9160005260206000209001600085909190916101000a81548173ffffffffffffffffffffffffffffffffffffffff021916908373ffffffffffffffffffffffffffffffffffffffff16021790555003600160008473ffffffffffffffffffffffffffffffffffffffff1673ffffffffffffffffffffffffffffffffffffffff168152602001908152602001600020819055505b600190505b919050565b6000816000191660086000846000191660001916815260200190815260200160002060010154600019161415611fd65760019050611fdb565b600090505b919050565b600080600160008473ffffffffffffffffffffffffffffffffffffffff1673ffffffffffffffffffffffffffffffffffffffff1681526020019081526020016000205411156120325760019050612037565b600090505b919050565b60008060009054906101000a900473ffffffffffffffffffffffffffffffffffffffff1673ffffffffffffffffffffffffffffffffffffffff163373ffffffffffffffffffffffffffffffffffffffff1614806120d857506000600160003373ffffffffffffffffffffffffffffffffffffffff1673ffffffffffffffffffffffffffffffffffffffff16815260200190815260200160002054115b15156120e357600080fd5b60006004600084600019166000191681526020019081526020016000206003015411151561211057600080fd5b60046000836000191660001916815260200190815260200160002060000160009054906101000a900473ffffffffffffffffffffffffffffffffffffffff169050919050565b60008060006004600086600019166000191681526020019081526020016000206003015411151561218657600080fd5b600090505b6009600085600019166000191681526020019081526020016000208054905081101561224c578273ffffffffffffffffffffffffffffffffffffffff16600960008660001916600019168152602001908152602001600020828154811015156121f057fe5b906000526020600020900160009054906101000a900473ffffffffffffffffffffffffffffffffffffffff1673ffffffffffffffffffffffffffffffffffffffff1614156122415760019150612251565b80600101905061218b565b600091505b5092915050565b6000809054906101000a900473ffffffffffffffffffffffffffffffffffffffff1681565b6000809054906101000a900473ffffffffffffffffffffffffffffffffffffffff1673ffffffffffffffffffffffffffffffffffffffff163373ffffffffffffffffffffffffffffffffffffffff161415156122d857600080fd5b600073ffffffffffffffffffffffffffffffffffffffff168173ffffffffffffffffffffffffffffffffffffffff161415151561231457600080fd5b806000806101000a81548173ffffffffffffffffffffffffffffffffffffffff021916908373ffffffffffffffffffffffffffffffffffffffff16021790555050565b60008060009054906101000a900473ffffffffffffffffffffffffffffffffffffffff16905090565b600060028081111561238e57fe5b61239783611d22565b60028111156123a257fe5b1415156123ae57600080fd5b600760008360001916600019168152602001908152602001600020805490509050919050565b6000806000809054906101000a900473ffffffffffffffffffffffffffffffffffffffff1673ffffffffffffffffffffffffffffffffffffffff163373ffffffffffffffffffffffffffffffffffffffff1614151561243257600080fd5b6000151561243f84611fe0565b151514156124505760009150612708565b6001151561245d85610cc2565b1515141561246e5760009150612708565b600580548060010182816124829190612ef2565b916000526020600020900160008690919091509060001916905590506080604051908101604052808473ffffffffffffffffffffffffffffffffffffffff16815260200185600019168152602001600160028111156124dd57fe5b81526020018281525060046000866000191660001916815260200190815260200160002060008201518160000160006101000a81548173ffffffffffffffffffffffffffffffffffffffff021916908373ffffffffffffffffffffffffffffffffffffffff1602179055506020820151816001019060001916905560408201518160020160006101000a81548160ff0219169083600281111561257c57fe5b0217905550606082015181600301559050506000151561259b84612cf8565b151514156126945760408051908101604052808473ffffffffffffffffffffffffffffffffffffffff16815260200160006040518059106125d95750595b9080825280602002602001820160405250815250600660008573ffffffffffffffffffffffffffffffffffffffff1673ffffffffffffffffffffffffffffffffffffffff16815260200190815260200160002060008201518160000160006101000a81548173ffffffffffffffffffffffffffffffffffffffff021916908373ffffffffffffffffffffffffffffffffffffffff160217905550602082015181600101908051906020019061268f929190612f1e565b509050505b600660008473ffffffffffffffffffffffffffffffffffffffff1673ffffffffffffffffffffffffffffffffffffffff16815260200190815260200160002060010180548060010182816126e89190612ef2565b916000526020600020900160008690919091509060001916905550600191505b5092915050565b60003373ffffffffffffffffffffffffffffffffffffffff1660046000846000191660001916815260200190815260200160002060000160009054906101000a900473ffffffffffffffffffffffffffffffffffffffff1673ffffffffffffffffffffffffffffffffffffffff1614151561278d5760009050612792565b600190505b919050565b61279f612f71565b600082101515156127af57600080fd5b81600760008560001916600019168152602001908152602001600020805490501115156127db57600080fd5b6002808111156127e757fe5b6127f084611d22565b60028111156127fb57fe5b14151561280757600080fd5b6060604051908101604052806007600086600019166000191681526020019081526020016000208481548110151561283b57fe5b906000526020600020906004020160000160009054906101000a900460ff1660ff1681526020016007600086600019166000191681526020019081526020016000208481548110151561288a57fe5b90600052602060002090600402016001018054600181600116156101000203166002900480601f01602080910402602001604051908101604052809291908181526020018280546001816001161561010002031660029004801561292f5780601f106129045761010080835404028352916020019161292f565b820191906000526020600020905b81548152906001019060200180831161291257829003601f168201915b505050505081526020016007600086600019166000191681526020019081526020016000208481548110151561296157fe5b90600052602060002090600402016002018054600181600116156101000203166002900480601f016020809104026020016040519081016040528092919081815260200182805460018160011615610100020316600290048015612a065780601f106129db57610100808354040283529160200191612a06565b820191906000526020600020905b8154815290600101906020018083116129e957829003601f168201915b5050505050815250905092915050565b60008060009054906101000a900473ffffffffffffffffffffffffffffffffffffffff1673ffffffffffffffffffffffffffffffffffffffff168273ffffffffffffffffffffffffffffffffffffffff161415612a765760019050612a7b565b600090505b919050565b6000612a8a612fa2565b612a92612fa2565b60008410151515612aa257600080fd5b8360076000876000191660001916815260200190815260200160002080549050111515612ace57600080fd5b600280811115612ada57fe5b612ae386611d22565b6002811115612aee57fe5b141515612afa57600080fd5b60076000866000191660001916815260200190815260200160002084815481101515612b2257fe5b906000526020600020906004020160000160009054906101000a900460ff1660076000876000191660001916815260200190815260200160002085815481101515612b6957fe5b906000526020600020906004020160010160076000886000191660001916815260200190815260200160002086815481101515612ba257fe5b9060005260206000209060040201600201818054600181600116156101000203166002900480601f016020809104026020016040519081016040528092919081815260200182805460018160011615610100020316600290048015612c485780601f10612c1d57610100808354040283529160200191612c48565b820191906000526020600020905b815481529060010190602001808311612c2b57829003601f168201915b50505050509150808054600181600116156101000203166002900480601f016020809104026020016040519081016040528092919081815260200182805460018160011615610100020316600290048015612ce45780601f10612cb957610100808354040283529160200191612ce4565b820191906000526020600020905b815481529060010190602001808311612cc757829003601f168201915b505050505090509250925092509250925092565b60008173ffffffffffffffffffffffffffffffffffffffff16600660008473ffffffffffffffffffffffffffffffffffffffff1673ffffffffffffffffffffffffffffffffffffffff16815260200190815260200160002060000160009054906101000a900473ffffffffffffffffffffffffffffffffffffffff1673ffffffffffffffffffffffffffffffffffffffff16141515612d9a5760019050612d9f565b600090505b919050565b50805460018160011615610100020316600290046000825580601f10612dca5750612de9565b601f016020900490600052602060002090810190612de89190612fb6565b5b50565b815481835581811511612e1357818360005260206000209182019101612e129190612fb6565b5b505050565b602060405190810160405280600081525090565b815481835581811511612e5957600402816004028360005260206000209182019101612e589190612fdb565b5b505050565b828054600181600116156101000203166002900490600052602060002090601f016020900481019282601f10612e9f57805160ff1916838001178555612ecd565b82800160010185558215612ecd579182015b82811115612ecc578251825591602001919060010190612eb1565b5b509050612eda9190612fb6565b5090565b602060405190810160405280600081525090565b815481835581811511612f1957818360005260206000209182019101612f189190613042565b5b505050565b828054828255906000526020600020908101928215612f60579160200282015b82811115612f5f578251829060001916905591602001919060010190612f3e565b5b509050612f6d9190613042565b5090565b606060405190810160405280600060ff168152602001612f8f613067565b8152602001612f9c613067565b81525090565b602060405190810160405280600081525090565b612fd891905b80821115612fd4576000816000905550600101612fbc565b5090565b90565b61303f91905b8082111561303b57600080820160006101000a81549060ff021916905560018201600061300e9190612da4565b60028201600061301e9190612da4565b6003820160006101000a81549060ff021916905550600401612fe1565b5090565b90565b61306491905b80821115613060576000816000905550600101613048565b5090565b90565b6020604051908101604052806000815250905600a165627a7a723058205c441b867589e330b5198bc433f91ab853fdf87696cc867e0423969dc75432b70029",
  "source": "pragma solidity ^0.4.18;\nimport \"./ONSGS1Code.sol\";\n\ncontract ONSRecord is ONSGS1Code{\n\n  // Servicetype xml\n  struct ServiceType\n  {\n    // ONS ServiceType properties\n    bytes32 serviceTypeIdentifer;\n    bool abstrct;\n    bytes32 extends;\n    string WSDL;\n    string homepage;\n    mapping(bytes32 => string) documentations;\n    bytes32[] obsoletes;\n    bytes32[] obsoletedBy;\n  }\n\n  struct FlexibleServiceType\n  {\n    mapping(string=>string) items;\n    string[] keys;\n  }\n\n  struct Record\n  {\n    // ONS record properties\n    //uint32 order;\n    //uint32 pref;\n    uint8 flags;\n    string service; //url.... is it needed??\n    string regexp;\n    //string replacement;\n    //extended properties\n    uint8 state; //0 : inactive, 1 : active\n    //TO-DO : service type  .\n    //ServiceType serviceType;\n    //FlexibleServiceType flexibleServiceType;\n  }\n\n  struct RecordResult\n  {\n    uint8 flags;\n    string service; //url.... is it needed??\n    string regexp;\n  }\n\n  struct ONSCoreData {\n    address firstProvider;\n    bytes32 gs1Code;\n    //address[] allowedProvider;\n  }\n\n  //EVM don't support the Nested Array\n  mapping(bytes32=>Record[]) recordListMap;\n  mapping(bytes32=>ONSCoreData) onsCoreDataList;\n  mapping(bytes32=>address[]) allowedProviders;\n\n  function ONSRecord() {\n    // constructor\n  }\n\n  function isExistONSCoreDataByGS1Code(bytes32 gs1Code) public view returns(bool) {\n    //gs1CodeList owner  .\n    if (onsCoreDataList[gs1Code].gs1Code == gs1Code)\n      return true;\n    return false;\n  }\n\n  function registerAllowedProvider(bytes32 gs1Code, address providerAddress)\n  public\n  onlyExistOwner(msg.sender)\n  onlyOwner(gs1Code)\n  returns(bool)\n  {\n    require(isExistOwner(msg.sender) == true);\n    allowedProviders[gs1Code].push(providerAddress);\n    return true;\n  }\n\n  function deregisterAllowedProvider(bytes32 gs1Code, address deletedProviderAddress)\n  public\n  onlyExistOwner(msg.sender)\n  onlyOwner(gs1Code)\n  returns(bool)\n  {\n    require(isExistOwner(msg.sender) == true);\n    for (uint256 idx = 0; idx <  allowedProviders[gs1Code].length; ++idx) {\n      if (allowedProviders[gs1Code][idx] == deletedProviderAddress)\n        delete allowedProviders[gs1Code][idx];\n    }\n    return true;\n  }\n\n  function getAllowedProviders(bytes32 gs1Code)\n  public\n  view\n  returns(address[])\n  {\n    require(gs1CodeList[gs1Code].index > 0);\n    return allowedProviders[gs1Code];\n  }\n\n  function isAllowedProvider(bytes32 gs1Code, address providerAddr)\n  public\n  view\n  returns(bool)\n  {\n    require(gs1CodeList[gs1Code].index > 0);\n    for (uint256 idx = 0; idx <  allowedProviders[gs1Code].length; ++idx) {\n      if (allowedProviders[gs1Code][idx] == providerAddr)\n        return true;\n    }\n    return false;\n  }\n\n  function addRecord(bytes32 gs1Code, uint8 flags, string service, string regexp) public returns(bool){\n    require(isAllowedProvider(gs1Code, msg.sender));\n\n    if (isExistONSCoreDataByGS1Code(gs1Code) == false)\n      onsCoreDataList[gs1Code] = ONSCoreData(msg.sender, gs1Code);\n      //, new Record[](0));\n\n    recordListMap[gs1Code].push(Record(flags, service, regexp, 0));\n    //, FlexibleServiceType({keys:new string[](0)})));\n    //onsCoreDataList[gs1Code].maxRecodeId++;\n    return true;\n  }\n\n  function removeRecord(bytes32 gs1Code, uint8 recordId) public returns(bool){\n    require(recordId >= 0);\n    require(recordListMap[gs1Code].length > recordId);\n    require(isAllowedProvider(gs1Code, msg.sender));\n    /*\n    delete onsCoreDataList[gs1Code].recordList[recordId];\n    onsCoreDataList[gs1Code].maxRecodeId--;\n    */\n    delete recordListMap[gs1Code][recordId];\n    //onsCoreDataList[gs1Code].maxRecodeId--;\n    return true;\n  }\n\n  function getRecordCount(bytes32 gs1Code) public view returns(uint256) {\n    require(getGS1CodeState(gs1Code) == GS1CodeState.ACTIVE);\n    return recordListMap[gs1Code].length;//onsCoreDataList[gs1Code].maxRecodeId;\n  }\n\n  function getRecord(bytes32 gs1Code, uint256 recordId) public view returns(RecordResult) {\n    require(recordId >= 0);\n    //require(onsCoreDataList[gs1Code].maxRecodeId > recordId);\n    require(recordListMap[gs1Code].length > recordId);\n    require(getGS1CodeState(gs1Code) == GS1CodeState.ACTIVE);\n    return RecordResult(recordListMap[gs1Code][recordId].flags,\n                        recordListMap[gs1Code][recordId].service,\n                        recordListMap[gs1Code][recordId].regexp);\n  }\n\n  function getRecord2(bytes32 gs1Code, uint256 recordId) public view returns(uint8, string, string) {\n    require(recordId >= 0);\n    //require(onsCoreDataList[gs1Code].maxRecodeId > recordId);\n    require(recordListMap[gs1Code].length > recordId);\n    require(getGS1CodeState(gs1Code) == GS1CodeState.ACTIVE);\n    return (recordListMap[gs1Code][recordId].flags,\n      recordListMap[gs1Code][recordId].service,\n      recordListMap[gs1Code][recordId].regexp);\n  }\n  //TO-DO\n  /*\n  function addFlexibleServiceType(bytes32 gs1Code, uint256 recordId, string[] _keys, string[] _values) public returns(bool){\n    require(recordId >= 0);\n    require(_keys.length == _values.length);\n    require(onsCoreDataList[gs1Code].maxRecodeId > recordId);\n\n    if (getAllowedProvider(gs1Code) != msg.sender)\n      return false;\n\n    for (uint i = 0; i < _keys.length; ++i) {\n      onsCoreDataList[gs1Code].recordList[recordId].flexibleServiceType.keys.push(_keys[i]);\n      onsCoreDataList[gs1Code].recordList[recordId].flexibleServiceType.items[_keys[i]] = _values[i];\n    }\n    return true;\n  }\n\n  function removeFlexibleServiceType(bytes32 gs1Code, uint256 recordId) public returns(bool){\n    require(recordId >= 0);\n    require(onsCoreDataList[gs1Code].maxRecodeId > recordId);\n\n    if (getAllowedProvider(gs1Code) != msg.sender)\n      return false;\n\n    uint maxKeyIdx = onsCoreDataList[gs1Code].recordList[recordId].flexibleServiceType.keys.length;\n    string memory key;\n    for (uint i = 0; i < maxKeyIdx; ++i) {\n      key = onsCoreDataList[gs1Code].recordList[recordId].flexibleServiceType.keys[i];\n      delete onsCoreDataList[gs1Code].recordList[recordId].flexibleServiceType.items[key];\n      delete onsCoreDataList[gs1Code].recordList[recordId].flexibleServiceType.keys[i];\n    }\n    onsCoreDataList[gs1Code].recordList[recordId].flexibleServiceType.keys.length = 0;\n    return true;\n  }\n  */\n}\n",
  "sourcePath": "/mnt/c/projects/ons/ons-on-ethereum/src/contracts/ONSRecord.sol",
  "compiler": {
    "name": "solc",
    "version": "0.4.19+commit.c4cbbb05.Emscripten.clang"
  },
  "schemaVersion": "2.0.0",
  "updatedAt": "2018-04-15T15:39:31.262Z"
}