{
  "contractName": "ONSRecord",
  "abi": [
    {
      "constant": true,
      "inputs": [
        {
          "name": "",
          "type": "address"
        }
      ],
      "name": "owners",
      "outputs": [
        {
          "name": "",
          "type": "uint256"
        }
      ],
      "payable": false,
      "stateMutability": "view",
      "type": "function"
    },
    {
      "constant": false,
      "inputs": [
        {
          "name": "ownerAddress",
          "type": "address"
        }
      ],
      "name": "removeOwner",
      "outputs": [],
      "payable": false,
      "stateMutability": "nonpayable",
      "type": "function"
    },
    {
      "constant": false,
      "inputs": [
        {
          "name": "gs1Code",
          "type": "bytes32"
        }
      ],
      "name": "addGS1Code",
      "outputs": [
        {
          "name": "",
          "type": "bool"
        }
      ],
      "payable": false,
      "stateMutability": "nonpayable",
      "type": "function"
    },
    {
      "constant": true,
      "inputs": [],
      "name": "getOwnerList",
      "outputs": [
        {
          "name": "",
          "type": "address[]"
        }
      ],
      "payable": false,
      "stateMutability": "view",
      "type": "function"
    },
    {
      "constant": false,
      "inputs": [
        {
          "name": "gs1Code",
          "type": "bytes32"
        },
        {
          "name": "newAddress",
          "type": "address"
        }
      ],
      "name": "changeOwnerOfGS1Code",
      "outputs": [
        {
          "name": "",
          "type": "bool"
        }
      ],
      "payable": false,
      "stateMutability": "nonpayable",
      "type": "function"
    },
    {
      "constant": false,
      "inputs": [
        {
          "name": "gs1Code",
          "type": "bytes32"
        },
        {
          "name": "state",
          "type": "uint8"
        }
      ],
      "name": "changeGS1CodeState",
      "outputs": [
        {
          "name": "",
          "type": "bool"
        }
      ],
      "payable": false,
      "stateMutability": "nonpayable",
      "type": "function"
    },
    {
      "constant": true,
      "inputs": [
        {
          "name": "gs1Code",
          "type": "bytes32"
        }
      ],
      "name": "getGS1CodeState",
      "outputs": [
        {
          "name": "",
          "type": "uint8"
        }
      ],
      "payable": false,
      "stateMutability": "view",
      "type": "function"
    },
    {
      "constant": false,
      "inputs": [
        {
          "name": "ownerAddress",
          "type": "address"
        }
      ],
      "name": "addOwner",
      "outputs": [
        {
          "name": "",
          "type": "bool"
        }
      ],
      "payable": false,
      "stateMutability": "nonpayable",
      "type": "function"
    },
    {
      "constant": false,
      "inputs": [
        {
          "name": "gs1Code",
          "type": "bytes32"
        }
      ],
      "name": "removeGS1Code",
      "outputs": [
        {
          "name": "",
          "type": "bool"
        }
      ],
      "payable": false,
      "stateMutability": "nonpayable",
      "type": "function"
    },
    {
      "constant": true,
      "inputs": [
        {
          "name": "ownerAddress",
          "type": "address"
        }
      ],
      "name": "isExistOwner",
      "outputs": [
        {
          "name": "",
          "type": "bool"
        }
      ],
      "payable": false,
      "stateMutability": "view",
      "type": "function"
    },
    {
      "constant": true,
      "inputs": [],
      "name": "managerAddress",
      "outputs": [
        {
          "name": "",
          "type": "address"
        }
      ],
      "payable": false,
      "stateMutability": "view",
      "type": "function"
    },
    {
      "constant": false,
      "inputs": [
        {
          "name": "_newManager",
          "type": "address"
        }
      ],
      "name": "setManager",
      "outputs": [],
      "payable": false,
      "stateMutability": "nonpayable",
      "type": "function"
    },
    {
      "constant": true,
      "inputs": [],
      "name": "getManager",
      "outputs": [
        {
          "name": "",
          "type": "address"
        }
      ],
      "payable": false,
      "stateMutability": "view",
      "type": "function"
    },
    {
      "constant": true,
      "inputs": [
        {
          "name": "gs1Code",
          "type": "bytes32"
        }
      ],
      "name": "isOwner",
      "outputs": [
        {
          "name": "",
          "type": "bool"
        }
      ],
      "payable": false,
      "stateMutability": "view",
      "type": "function"
    },
    {
      "inputs": [],
      "payable": false,
      "stateMutability": "nonpayable",
      "type": "constructor"
    },
    {
      "constant": true,
      "inputs": [
        {
          "name": "gs1Code",
          "type": "bytes32"
        }
      ],
      "name": "isExistONSCoreDataByGS1Code",
      "outputs": [
        {
          "name": "",
          "type": "bool"
        }
      ],
      "payable": false,
      "stateMutability": "view",
      "type": "function"
    },
    {
      "constant": false,
      "inputs": [
        {
          "name": "gs1Code",
          "type": "bytes32"
        },
        {
          "name": "providerAddress",
          "type": "address"
        }
      ],
      "name": "registerAllowedProvider",
      "outputs": [
        {
          "name": "",
          "type": "bool"
        }
      ],
      "payable": false,
      "stateMutability": "nonpayable",
      "type": "function"
    },
    {
      "constant": false,
      "inputs": [
        {
          "name": "gs1Code",
          "type": "bytes32"
        },
        {
          "name": "deletedProviderAddress",
          "type": "address"
        }
      ],
      "name": "deregisterAllowedProvider",
      "outputs": [
        {
          "name": "",
          "type": "bool"
        }
      ],
      "payable": false,
      "stateMutability": "nonpayable",
      "type": "function"
    },
    {
      "constant": true,
      "inputs": [
        {
          "name": "gs1Code",
          "type": "bytes32"
        }
      ],
      "name": "getAllowedProviders",
      "outputs": [
        {
          "name": "",
          "type": "address[]"
        }
      ],
      "payable": false,
      "stateMutability": "view",
      "type": "function"
    },
    {
      "constant": true,
      "inputs": [
        {
          "name": "gs1Code",
          "type": "bytes32"
        },
        {
          "name": "providerAddr",
          "type": "address"
        }
      ],
      "name": "isAllowedProvider",
      "outputs": [
        {
          "name": "",
          "type": "bool"
        }
      ],
      "payable": false,
      "stateMutability": "view",
      "type": "function"
    },
    {
      "constant": false,
      "inputs": [
        {
          "name": "gs1Code",
          "type": "bytes32"
        },
        {
          "name": "flags",
          "type": "uint8"
        },
        {
          "name": "service",
          "type": "bytes32"
        },
        {
          "name": "regexp",
          "type": "string"
        }
      ],
      "name": "addRecord",
      "outputs": [
        {
          "name": "",
          "type": "bool"
        }
      ],
      "payable": false,
      "stateMutability": "nonpayable",
      "type": "function"
    },
    {
      "constant": false,
      "inputs": [
        {
          "name": "gs1Code",
          "type": "bytes32"
        },
        {
          "name": "recordId",
          "type": "uint8"
        }
      ],
      "name": "removeRecord",
      "outputs": [
        {
          "name": "",
          "type": "bool"
        }
      ],
      "payable": false,
      "stateMutability": "nonpayable",
      "type": "function"
    },
    {
      "constant": true,
      "inputs": [
        {
          "name": "gs1Code",
          "type": "bytes32"
        }
      ],
      "name": "getRecordCount",
      "outputs": [
        {
          "name": "",
          "type": "uint256"
        }
      ],
      "payable": false,
      "stateMutability": "view",
      "type": "function"
    },
    {
      "constant": true,
      "inputs": [
        {
          "name": "gs1Code",
          "type": "bytes32"
        },
        {
          "name": "recordId",
          "type": "uint256"
        }
      ],
      "name": "getRecord",
      "outputs": [
        {
          "components": [
            {
              "name": "flags",
              "type": "uint8"
            },
            {
              "name": "service",
              "type": "bytes32"
            },
            {
              "name": "regexp",
              "type": "string"
            }
          ],
          "name": "",
          "type": "tuple"
        }
      ],
      "payable": false,
      "stateMutability": "view",
      "type": "function"
    }
  ],
  "bytecode": "0x6060604052600060035534156200001557600080fd5b336000806101000a81548173ffffffffffffffffffffffffffffffffffffffff021916908373ffffffffffffffffffffffffffffffffffffffff160217905550600280548060010182816200006b9190620000c0565b9160005260206000209001600033909190916101000a81548173ffffffffffffffffffffffffffffffffffffffff021916908373ffffffffffffffffffffffffffffffffffffffff1602179055505062000117565b815481835581811511620000ea57818360005260206000209182019101620000e99190620000ef565b5b505050565b6200011491905b8082111562000110576000816000905550600101620000f6565b5090565b90565b61274480620001276000396000f300606060405260043610610133576000357c0100000000000000000000000000000000000000000000000000000000900463ffffffff168063022914a714610138578063039070621461018557806315355d1a146101d0578063173825d91461022e57806318a91b3c14610267578063290e66a0146102c55780634d9083f41461030457806358100370146103805780635e92058a146103ea5780636056e26e146104485780636741f2c6146104935780637065cb48146104dc578063751c35a61461052d578063a0ec9e77146105c8578063aa96756e14610607578063ac0a1ecb14610646578063c9a83cfd14610697578063cf73a1bc146106f5578063d0ebdbe71461074a578063d500958414610783578063df84a592146107d8578063eeac39d814610813578063f24d954e14610852575b600080fd5b341561014357600080fd5b61016f600480803573ffffffffffffffffffffffffffffffffffffffff16906020019091905050610896565b6040518082815260200191505060405180910390f35b341561019057600080fd5b6101b660048080356000191690602001909190803560ff169060200190919050506108ae565b604051808215151515815260200191505060405180910390f35b34156101db57600080fd5b61021460048080356000191690602001909190803573ffffffffffffffffffffffffffffffffffffffff16906020019091905050610997565b604051808215151515815260200191505060405180910390f35b341561023957600080fd5b610265600480803573ffffffffffffffffffffffffffffffffffffffff16906020019091905050610b04565b005b341561027257600080fd5b6102ab60048080356000191690602001909190803573ffffffffffffffffffffffffffffffffffffffff16906020019091905050610c78565b604051808215151515815260200191505060405180910390f35b34156102d057600080fd5b6102ea600480803560001916906020019091905050610e7f565b604051808215151515815260200191505060405180910390f35b341561030f57600080fd5b610329600480803560001916906020019091905050611228565b6040518080602001828103825283818151815260200191508051906020019060200280838360005b8381101561036c578082015181840152602081019050610351565b505050509050019250505060405180910390f35b341561038b57600080fd5b610393611304565b6040518080602001828103825283818151815260200191508051906020019060200280838360005b838110156103d65780820151818401526020810190506103bb565b505050509050019250505060405180910390f35b34156103f557600080fd5b61042e60048080356000191690602001909190803573ffffffffffffffffffffffffffffffffffffffff16906020019091905050611398565b604051808215151515815260200191505060405180910390f35b341561045357600080fd5b61047960048080356000191690602001909190803560ff169060200190919050506114f8565b604051808215151515815260200191505060405180910390f35b341561049e57600080fd5b6104b86004808035600019169060200190919050506115cb565b604051808260028111156104c857fe5b60ff16815260200191505060405180910390f35b34156104e757600080fd5b610513600480803573ffffffffffffffffffffffffffffffffffffffff1690602001909190505061162c565b604051808215151515815260200191505060405180910390f35b341561053857600080fd5b6105ae60048080356000191690602001909190803560ff169060200190919080356000191690602001909190803590602001908201803590602001908080601f01602080910402602001604051908101604052809392919081815260200183838082843782019150505050505091905050611846565b604051808215151515815260200191505060405180910390f35b34156105d357600080fd5b6105ed600480803560001916906020019091905050611a0e565b604051808215151515815260200191505060405180910390f35b341561061257600080fd5b61062c600480803560001916906020019091905050611a51565b604051808215151515815260200191505060405180910390f35b341561065157600080fd5b61067d600480803573ffffffffffffffffffffffffffffffffffffffff16906020019091905050611e40565b604051808215151515815260200191505060405180910390f35b34156106a257600080fd5b6106db60048080356000191690602001909190803573ffffffffffffffffffffffffffffffffffffffff16906020019091905050611e9c565b604051808215151515815260200191505060405180910390f35b341561070057600080fd5b610708611f9e565b604051808273ffffffffffffffffffffffffffffffffffffffff1673ffffffffffffffffffffffffffffffffffffffff16815260200191505060405180910390f35b341561075557600080fd5b610781600480803573ffffffffffffffffffffffffffffffffffffffff16906020019091905050611fc3565b005b341561078e57600080fd5b61079661209d565b604051808273ffffffffffffffffffffffffffffffffffffffff1673ffffffffffffffffffffffffffffffffffffffff16815260200191505060405180910390f35b34156107e357600080fd5b6107fd6004808035600019169060200190919050506120c6565b6040518082815260200191505060405180910390f35b341561081e57600080fd5b61083860048080356000191690602001909190505061211a565b604051808215151515815260200191505060405180910390f35b341561085d57600080fd5b6108806004808035600019169060200190919080359060200190919050506121a2565b6040518082815260200191505060405180910390f35b60016020528060005260406000206000915090505481565b6000808260ff16101515156108c257600080fd5b8160ff16600760008560001916600019168152602001908152602001600020805490501115156108f157600080fd5b600015156108ff8433611e9c565b151514156109105760009050610991565b6007600084600019166000191681526020019081526020016000208260ff1681548110151561093b57fe5b9060005260206000209060040201600080820160006101000a81549060ff021916905560018201600090556002820160006109769190612474565b6003820160006101000a81549060ff02191690555050600190505b92915050565b6000336000600160008373ffffffffffffffffffffffffffffffffffffffff1673ffffffffffffffffffffffffffffffffffffffff168152602001908152602001600020541115156109e857600080fd5b833373ffffffffffffffffffffffffffffffffffffffff1660046000836000191660001916815260200190815260200160002060000160009054906101000a900473ffffffffffffffffffffffffffffffffffffffff1673ffffffffffffffffffffffffffffffffffffffff16141515610a6157600080fd5b60011515610a6e33611e40565b1515141515610a7c57600080fd5b6009600086600019166000191681526020019081526020016000208054806001018281610aa991906124bc565b9160005260206000209001600086909190916101000a81548173ffffffffffffffffffffffffffffffffffffffff021916908373ffffffffffffffffffffffffffffffffffffffff1602179055505060019250505092915050565b6000809054906101000a900473ffffffffffffffffffffffffffffffffffffffff1673ffffffffffffffffffffffffffffffffffffffff163373ffffffffffffffffffffffffffffffffffffffff16141515610b5f57600080fd5b6000600160008373ffffffffffffffffffffffffffffffffffffffff1673ffffffffffffffffffffffffffffffffffffffff16815260200190815260200160002054111515610bad57600080fd5b600160008273ffffffffffffffffffffffffffffffffffffffff1673ffffffffffffffffffffffffffffffffffffffff168152602001908152602001600020546003819055506002600354815481101515610c0457fe5b906000526020600020900160006101000a81549073ffffffffffffffffffffffffffffffffffffffff0219169055600160008273ffffffffffffffffffffffffffffffffffffffff1673ffffffffffffffffffffffffffffffffffffffff1681526020019081526020016000206000905550565b600080336000600160008373ffffffffffffffffffffffffffffffffffffffff1673ffffffffffffffffffffffffffffffffffffffff16815260200190815260200160002054111515610cca57600080fd5b843373ffffffffffffffffffffffffffffffffffffffff1660046000836000191660001916815260200190815260200160002060000160009054906101000a900473ffffffffffffffffffffffffffffffffffffffff1673ffffffffffffffffffffffffffffffffffffffff16141515610d4357600080fd5b60011515610d5033611e40565b1515141515610d5e57600080fd5b600092505b60096000876000191660001916815260200190815260200160002080549050831015610e72578473ffffffffffffffffffffffffffffffffffffffff1660096000886000191660001916815260200190815260200160002084815481101515610dc857fe5b906000526020600020900160009054906101000a900473ffffffffffffffffffffffffffffffffffffffff1673ffffffffffffffffffffffffffffffffffffffff161415610e675760096000876000191660001916815260200190815260200160002083815481101515610e3857fe5b906000526020600020900160006101000a81549073ffffffffffffffffffffffffffffffffffffffff02191690555b826001019250610d63565b6001935050505092915050565b600080336000600160008373ffffffffffffffffffffffffffffffffffffffff1673ffffffffffffffffffffffffffffffffffffffff16815260200190815260200160002054111515610ed157600080fd5b833373ffffffffffffffffffffffffffffffffffffffff1660046000836000191660001916815260200190815260200160002060000160009054906101000a900473ffffffffffffffffffffffffffffffffffffffff1673ffffffffffffffffffffffffffffffffffffffff16141515610f4a57600080fd5b60001515610f5733611e40565b15151415610f685760009350611220565b60011515610f758661238d565b15151415610f865760009350611220565b60058054806001018281610f9a91906124e8565b916000526020600020900160008790919091509060001916905592506080604051908101604052803373ffffffffffffffffffffffffffffffffffffffff1681526020018660001916815260200160016002811115610ff557fe5b81526020018481525060046000876000191660001916815260200190815260200160002060008201518160000160006101000a81548173ffffffffffffffffffffffffffffffffffffffff021916908373ffffffffffffffffffffffffffffffffffffffff1602179055506020820151816001019060001916905560408201518160020160006101000a81548160ff0219169083600281111561109457fe5b021790555060608201518160030155905050600015156110b3336123c8565b151514156111ac5760408051908101604052803373ffffffffffffffffffffffffffffffffffffffff16815260200160006040518059106110f15750595b9080825280602002602001820160405250815250600660003373ffffffffffffffffffffffffffffffffffffffff1673ffffffffffffffffffffffffffffffffffffffff16815260200190815260200160002060008201518160000160006101000a81548173ffffffffffffffffffffffffffffffffffffffff021916908373ffffffffffffffffffffffffffffffffffffffff16021790555060208201518160010190805190602001906111a7929190612514565b509050505b600660003373ffffffffffffffffffffffffffffffffffffffff1673ffffffffffffffffffffffffffffffffffffffff168152602001908152602001600020600101805480600101828161120091906124e8565b916000526020600020900160008790919091509060001916905550600193505b505050919050565b611230612567565b60006004600084600019166000191681526020019081526020016000206003015411151561125d57600080fd5b6009600083600019166000191681526020019081526020016000208054806020026020016040519081016040528092919081815260200182805480156112f857602002820191906000526020600020905b8160009054906101000a900473ffffffffffffffffffffffffffffffffffffffff1673ffffffffffffffffffffffffffffffffffffffff16815260200190600101908083116112ae575b50505050509050919050565b61130c612567565b600280548060200260200160405190810160405280929190818152602001828054801561138e57602002820191906000526020600020905b8160009054906101000a900473ffffffffffffffffffffffffffffffffffffffff1673ffffffffffffffffffffffffffffffffffffffff1681526020019060010190808311611344575b5050505050905090565b6000336000600160008373ffffffffffffffffffffffffffffffffffffffff1673ffffffffffffffffffffffffffffffffffffffff168152602001908152602001600020541115156113e957600080fd5b833373ffffffffffffffffffffffffffffffffffffffff1660046000836000191660001916815260200190815260200160002060000160009054906101000a900473ffffffffffffffffffffffffffffffffffffffff1673ffffffffffffffffffffffffffffffffffffffff1614151561146257600080fd5b60006004600087600019166000191681526020019081526020016000206003015411151561148f57600080fd5b8360046000876000191660001916815260200190815260200160002060000160006101000a81548173ffffffffffffffffffffffffffffffffffffffff021916908373ffffffffffffffffffffffffffffffffffffffff16021790555060019250505092915050565b60008060009054906101000a900473ffffffffffffffffffffffffffffffffffffffff1673ffffffffffffffffffffffffffffffffffffffff163373ffffffffffffffffffffffffffffffffffffffff1614151561155557600080fd5b60006004600085600019166000191681526020019081526020016000206003015411151561158257600080fd5b8160046000856000191660001916815260200190815260200160002060020160006101000a81548160ff021916908360028111156115bc57fe5b02179055506001905092915050565b600080600460008460001916600019168152602001908152602001600020600301541115156115f957600080fd5b60046000836000191660001916815260200190815260200160002060020160009054906101000a900460ff169050919050565b60008060009054906101000a900473ffffffffffffffffffffffffffffffffffffffff1673ffffffffffffffffffffffffffffffffffffffff163373ffffffffffffffffffffffffffffffffffffffff1614151561168957600080fd5b6000600160008473ffffffffffffffffffffffffffffffffffffffff1673ffffffffffffffffffffffffffffffffffffffff1681526020019081526020016000205411156116da5760009050611841565b60006003541115611793578160026003548154811015156116f757fe5b906000526020600020900160006101000a81548173ffffffffffffffffffffffffffffffffffffffff021916908373ffffffffffffffffffffffffffffffffffffffff160217905550600354600160008473ffffffffffffffffffffffffffffffffffffffff1673ffffffffffffffffffffffffffffffffffffffff16815260200190815260200160002081905550600060038190555061183c565b6001600280548060010182816117a991906124bc565b9160005260206000209001600085909190916101000a81548173ffffffffffffffffffffffffffffffffffffffff021916908373ffffffffffffffffffffffffffffffffffffffff16021790555003600160008473ffffffffffffffffffffffffffffffffffffffff1673ffffffffffffffffffffffffffffffffffffffff168152602001908152602001600020819055505b600190505b919050565b60008015156118558633611e9c565b151514156118665760009050611a06565b6000151561187386611a0e565b151514156119205760408051908101604052803373ffffffffffffffffffffffffffffffffffffffff168152602001866000191681525060086000876000191660001916815260200190815260200160002060008201518160000160006101000a81548173ffffffffffffffffffffffffffffffffffffffff021916908373ffffffffffffffffffffffffffffffffffffffff160217905550602082015181600101906000191690559050505b600760008660001916600019168152602001908152602001600020805480600101828161194d919061257b565b916000526020600020906004020160006080604051908101604052808860ff16815260200187600019168152602001868152602001600060ff16815250909190915060008201518160000160006101000a81548160ff021916908360ff1602179055506020820151816001019060001916905560408201518160020190805190602001906119dc9291906125ad565b5060608201518160030160006101000a81548160ff021916908360ff160217905550505050600190505b949350505050565b6000816000191660086000846000191660001916815260200190815260200160002060010154600019161415611a475760019050611a4c565b600090505b919050565b600080336000600160008373ffffffffffffffffffffffffffffffffffffffff1673ffffffffffffffffffffffffffffffffffffffff16815260200190815260200160002054111515611aa357600080fd5b833373ffffffffffffffffffffffffffffffffffffffff1660046000836000191660001916815260200190815260200160002060000160009054906101000a900473ffffffffffffffffffffffffffffffffffffffff1673ffffffffffffffffffffffffffffffffffffffff16141515611b1c57600080fd5b60011515611b2933611e40565b1515141515611b3757600080fd5b60001515611b448661238d565b15151415611b555760009350611e38565b3373ffffffffffffffffffffffffffffffffffffffff1660046000876000191660001916815260200190815260200160002060000160009054906101000a900473ffffffffffffffffffffffffffffffffffffffff1673ffffffffffffffffffffffffffffffffffffffff16141580611bf457508460001916600460008760001916600019168152602001908152602001600020600101546000191614155b15611c025760009350611e38565b600092505b600660003373ffffffffffffffffffffffffffffffffffffffff1673ffffffffffffffffffffffffffffffffffffffff16815260200190815260200160002060010180549050831015611d2e578460001916600660003373ffffffffffffffffffffffffffffffffffffffff1673ffffffffffffffffffffffffffffffffffffffff16815260200190815260200160002060010184815481101515611ca857fe5b906000526020600020900154600019161415611d2157600660003373ffffffffffffffffffffffffffffffffffffffff1673ffffffffffffffffffffffffffffffffffffffff16815260200190815260200160002060010183815481101515611d0d57fe5b906000526020600020900160009055611d2e565b8280600101935050611c07565b6000600580549050118015611d8557508460001916600560016004600089600019166000191681526020019081526020016000206003015403815481101515611d7357fe5b90600052602060002090015460001916145b15611dca57600560016004600088600019166000191681526020019081526020016000206003015403815481101515611dba57fe5b9060005260206000209001600090555b600460008660001916600019168152602001908152602001600020600080820160006101000a81549073ffffffffffffffffffffffffffffffffffffffff021916905560018201600090556002820160006101000a81549060ff021916905560038201600090555050600193505b505050919050565b600080600160008473ffffffffffffffffffffffffffffffffffffffff1673ffffffffffffffffffffffffffffffffffffffff168152602001908152602001600020541115611e925760019050611e97565b600090505b919050565b600080600060046000866000191660001916815260200190815260200160002060030154111515611ecc57600080fd5b600090505b60096000856000191660001916815260200190815260200160002080549050811015611f92578273ffffffffffffffffffffffffffffffffffffffff1660096000866000191660001916815260200190815260200160002082815481101515611f3657fe5b906000526020600020900160009054906101000a900473ffffffffffffffffffffffffffffffffffffffff1673ffffffffffffffffffffffffffffffffffffffff161415611f875760019150611f97565b806001019050611ed1565b600091505b5092915050565b6000809054906101000a900473ffffffffffffffffffffffffffffffffffffffff1681565b6000809054906101000a900473ffffffffffffffffffffffffffffffffffffffff1673ffffffffffffffffffffffffffffffffffffffff163373ffffffffffffffffffffffffffffffffffffffff1614151561201e57600080fd5b600073ffffffffffffffffffffffffffffffffffffffff168173ffffffffffffffffffffffffffffffffffffffff161415151561205a57600080fd5b806000806101000a81548173ffffffffffffffffffffffffffffffffffffffff021916908373ffffffffffffffffffffffffffffffffffffffff16021790555050565b60008060009054906101000a900473ffffffffffffffffffffffffffffffffffffffff16905090565b60006002808111156120d457fe5b6120dd836115cb565b60028111156120e857fe5b1415156120f457600080fd5b600760008360001916600019168152602001908152602001600020805490509050919050565b60003373ffffffffffffffffffffffffffffffffffffffff1660046000846000191660001916815260200190815260200160002060000160009054906101000a900473ffffffffffffffffffffffffffffffffffffffff1673ffffffffffffffffffffffffffffffffffffffff16141515612198576000905061219d565b600190505b919050565b6121aa61262d565b600082101515156121ba57600080fd5b81600760008560001916600019168152602001908152602001600020805490501115156121e657600080fd5b6002808111156121f257fe5b6121fb846115cb565b600281111561220657fe5b14151561221257600080fd5b6060604051908101604052806007600086600019166000191681526020019081526020016000208481548110151561224657fe5b906000526020600020906004020160000160009054906101000a900460ff1660ff1681526020016007600086600019166000191681526020019081526020016000208481548110151561229557fe5b906000526020600020906004020160010154600019168152602001600760008660001916600019168152602001908152602001600020848154811015156122d857fe5b90600052602060002090600402016002018054600181600116156101000203166002900480601f01602080910402602001604051908101604052809291908181526020018280546001816001161561010002031660029004801561237d5780601f106123525761010080835404028352916020019161237d565b820191906000526020600020905b81548152906001019060200180831161236057829003601f168201915b5050505050815250905092915050565b6000806004600084600019166000191681526020019081526020016000206003015411156123be57600190506123c3565b600090505b919050565b60008173ffffffffffffffffffffffffffffffffffffffff16600660008473ffffffffffffffffffffffffffffffffffffffff1673ffffffffffffffffffffffffffffffffffffffff16815260200190815260200160002060000160009054906101000a900473ffffffffffffffffffffffffffffffffffffffff1673ffffffffffffffffffffffffffffffffffffffff1614151561246a576001905061246f565b600090505b919050565b50805460018160011615610100020316600290046000825580601f1061249a57506124b9565b601f0160209004906000526020600020908101906124b8919061265b565b5b50565b8154818355818115116124e3578183600052602060002091820191016124e2919061265b565b5b505050565b81548183558181151161250f5781836000526020600020918201910161250e9190612680565b5b505050565b828054828255906000526020600020908101928215612556579160200282015b82811115612555578251829060001916905591602001919060010190612534565b5b5090506125639190612680565b5090565b602060405190810160405280600081525090565b8154818355818115116125a8576004028160040283600052602060002091820191016125a791906126a5565b5b505050565b828054600181600116156101000203166002900490600052602060002090601f016020900481019282601f106125ee57805160ff191683800117855561261c565b8280016001018555821561261c579182015b8281111561261b578251825591602001919060010190612600565b5b509050612629919061265b565b5090565b606060405190810160405280600060ff16815260200160008019168152602001612655612704565b81525090565b61267d91905b80821115612679576000816000905550600101612661565b5090565b90565b6126a291905b8082111561269e576000816000905550600101612686565b5090565b90565b61270191905b808211156126fd57600080820160006101000a81549060ff021916905560018201600090556002820160006126e09190612474565b6003820160006101000a81549060ff0219169055506004016126ab565b5090565b90565b6020604051908101604052806000815250905600a165627a7a72305820c78da484dac6f05a899879d6a7ecd2c6825804a780620aae15a477405452023e0029",
  "source": "pragma solidity ^0.4.18;\nimport \"./ONSGS1Code.sol\";\n\ncontract ONSRecord is ONSGS1Code{\n\n  // Servicetype xml\n  struct ServiceType\n  {\n    // ONS ServiceType properties\n    bytes32 serviceTypeIdentifer;\n    bool abstrct;\n    bytes32 extends;\n    string WSDL;\n    string homepage;\n    mapping(bytes32 => string) documentations;\n    bytes32[] obsoletes;\n    bytes32[] obsoletedBy;\n  }\n\n  struct FlexibleServiceType\n  {\n    mapping(string=>string) items;\n    string[] keys;\n  }\n\n  struct Record\n  {\n    // ONS record properties\n    //uint32 order;\n    //uint32 pref;\n    uint8 flags;\n    bytes32 service; //url.... is it needed??\n    string regexp;\n    //string replacement;\n    //extended properties\n    uint8 state; //0 : inactive, 1 : active\n    //TO-DO : service type  .\n    //ServiceType serviceType;\n    //FlexibleServiceType flexibleServiceType;\n  }\n\n  struct RecordResult\n  {\n    uint8 flags;\n    bytes32 service; //url.... is it needed??\n    string regexp;\n  }\n\n  struct ONSCoreData {\n    address firstProvider;\n    bytes32 gs1Code;\n    //address[] allowedProvider;\n  }\n\n  //EVM don't support the Nested Array\n  mapping(bytes32=>Record[]) recordListMap;\n  mapping(bytes32=>ONSCoreData) onsCoreDataList;\n  mapping(bytes32=>address[]) allowedProviders;\n\n  function ONSRecord() {\n    // constructor\n  }\n\n  function isExistONSCoreDataByGS1Code(bytes32 gs1Code) public view returns(bool) {\n    //gs1CodeList owner  .\n    if (onsCoreDataList[gs1Code].gs1Code == gs1Code)\n      return true;\n    return false;\n  }\n\n  function registerAllowedProvider(bytes32 gs1Code, address providerAddress)\n  public\n  onlyExistOwner(msg.sender)\n  onlyOwner(gs1Code)\n  returns(bool)\n  {\n    require(isExistOwner(msg.sender) == true);\n    allowedProviders[gs1Code].push(providerAddress);\n    return true;\n  }\n\n  function deregisterAllowedProvider(bytes32 gs1Code, address deletedProviderAddress)\n  public\n  onlyExistOwner(msg.sender)\n  onlyOwner(gs1Code)\n  returns(bool)\n  {\n    require(isExistOwner(msg.sender) == true);\n    for (uint256 idx = 0; idx <  allowedProviders[gs1Code].length; ++idx) {\n      if (allowedProviders[gs1Code][idx] == deletedProviderAddress)\n        delete allowedProviders[gs1Code][idx];\n    }\n    return true;\n  }\n\n  function getAllowedProviders(bytes32 gs1Code)\n  public\n  view\n  returns(address[])\n  {\n    require(gs1CodeList[gs1Code].index > 0);\n    return allowedProviders[gs1Code];\n  }\n\n  function isAllowedProvider(bytes32 gs1Code, address providerAddr)\n  public\n  view\n  returns(bool)\n  {\n    require(gs1CodeList[gs1Code].index > 0);\n    for (uint256 idx = 0; idx <  allowedProviders[gs1Code].length; ++idx) {\n      if (allowedProviders[gs1Code][idx] == providerAddr)\n        return true;\n    }\n    return false;\n  }\n\n  function addRecord(bytes32 gs1Code, uint8 flags, bytes32 service, string regexp) public returns(bool){\n    if (isAllowedProvider(gs1Code, msg.sender) == false)\n      return false;\n\n    if (isExistONSCoreDataByGS1Code(gs1Code) == false)\n      onsCoreDataList[gs1Code] = ONSCoreData(msg.sender, gs1Code);\n      //, new Record[](0));\n\n    recordListMap[gs1Code].push(Record(flags, service, regexp, 0));\n    //, FlexibleServiceType({keys:new string[](0)})));\n    //onsCoreDataList[gs1Code].maxRecodeId++;\n    return true;\n  }\n\n  function removeRecord(bytes32 gs1Code, uint8 recordId) public returns(bool){\n    require(recordId >= 0);\n    require(recordListMap[gs1Code].length > recordId);\n\n    if (isAllowedProvider(gs1Code, msg.sender) == false)\n      return false;\n    /*\n    delete onsCoreDataList[gs1Code].recordList[recordId];\n    onsCoreDataList[gs1Code].maxRecodeId--;\n    */\n    delete recordListMap[gs1Code][recordId];\n    //onsCoreDataList[gs1Code].maxRecodeId--;\n    return true;\n  }\n\n  function getRecordCount(bytes32 gs1Code) public view returns(uint256) {\n    require(getGS1CodeState(gs1Code) == GS1CodeState.ACTIVE);\n    return recordListMap[gs1Code].length;//onsCoreDataList[gs1Code].maxRecodeId;\n  }\n\n  function getRecord(bytes32 gs1Code, uint256 recordId) public view returns(RecordResult) {\n    require(recordId >= 0);\n    //require(onsCoreDataList[gs1Code].maxRecodeId > recordId);\n    require(recordListMap[gs1Code].length > recordId);\n    require(getGS1CodeState(gs1Code) == GS1CodeState.ACTIVE);\n    return RecordResult(recordListMap[gs1Code][recordId].flags,\n                        recordListMap[gs1Code][recordId].service,\n                        recordListMap[gs1Code][recordId].regexp);\n  }\n\n  //TO-DO\n  /*\n  function addFlexibleServiceType(bytes32 gs1Code, uint256 recordId, string[] _keys, string[] _values) public returns(bool){\n    require(recordId >= 0);\n    require(_keys.length == _values.length);\n    require(onsCoreDataList[gs1Code].maxRecodeId > recordId);\n\n    if (getAllowedProvider(gs1Code) != msg.sender)\n      return false;\n\n    for (uint i = 0; i < _keys.length; ++i) {\n      onsCoreDataList[gs1Code].recordList[recordId].flexibleServiceType.keys.push(_keys[i]);\n      onsCoreDataList[gs1Code].recordList[recordId].flexibleServiceType.items[_keys[i]] = _values[i];\n    }\n    return true;\n  }\n\n  function removeFlexibleServiceType(bytes32 gs1Code, uint256 recordId) public returns(bool){\n    require(recordId >= 0);\n    require(onsCoreDataList[gs1Code].maxRecodeId > recordId);\n\n    if (getAllowedProvider(gs1Code) != msg.sender)\n      return false;\n\n    uint maxKeyIdx = onsCoreDataList[gs1Code].recordList[recordId].flexibleServiceType.keys.length;\n    string memory key;\n    for (uint i = 0; i < maxKeyIdx; ++i) {\n      key = onsCoreDataList[gs1Code].recordList[recordId].flexibleServiceType.keys[i];\n      delete onsCoreDataList[gs1Code].recordList[recordId].flexibleServiceType.items[key];\n      delete onsCoreDataList[gs1Code].recordList[recordId].flexibleServiceType.keys[i];\n    }\n    onsCoreDataList[gs1Code].recordList[recordId].flexibleServiceType.keys.length = 0;\n    return true;\n  }\n  */\n}\n",
  "sourcePath": "/mnt/c/projects/ons/ons-on-ethereum/src/contracts/ONSRecord.sol",
  "compiler": {
    "name": "solc",
    "version": "0.4.19+commit.c4cbbb05.Emscripten.clang"
  },
  "schemaVersion": "2.0.0",
  "updatedAt": "2018-04-12T17:09:13.753Z"
}